:1000000000000420752101005D2101005F21010035
:100010006121010063210100652101000000000051
:10002000000000000000000000000000213001007E
:100030006921010000000000413001005D3F020025
:1000400099A101006F21010031ED010019A4010007
:10005000E5AE01006F210100459A01006F2101000A
:100060006F2101006F2101006F210100259F010018
:100070006F2101006F2101006F2101006F2101003C
:100080006DB30100893201006F2101006F21010071
:100090006F2101006F2101006F2101006F2101001C
:1000A0006F2101006F2101006F2101006F2101000C
:1000B0006F2101006F21010000000000000000001E
:1000C0006F2101006F2101006F2101002DA40100AB
:1000D0006F2101006F2101006F2101003DD6010059
:1000E0006F2101006F2101006F210100000000005D
:1000F000000000006F2101000000000041A4010089
:1001000000000000000000000000000000000000EF
:1001100000000000000000000000000000000000DF
:1001200000000000000000000000000000000000CF
:1001300000000000000000000000000000000000BF
:1001400000000000000000000000000000000000AF
:10015000000000000000000000000000000000009F
:10016000000000000000000000000000000000008F
:10017000000000000000000000000000000000007F
:10018000000000000000000000000000000000006F
:10019000000000000000000000000000000000005F
:1001A000000000000000000000000000000000004F
:1001B000000000000000000000000000000000003F
:1001C000000000000000000000000000000000002F
:1001D000000000000000000000000000000000001F
:1001E000000000000000000000000000000000000F
:1001F00000000000000000000000000000000000FF
:020000021000EC
:100000000100CADE00010000000000000000010045
:10001000000100008813E8032C01E803ED39CC4609
:10002000ED39CC460A000A006400E803AC0D01007B
:1000300064000000050214000909010200008900A3
:1000400000000000000000000000000000000000B0
:1000500000000000000000000000000000000000A0
:100060000000000000000000000000000000000090
:100070000000000000000000000000000000000080
:100800000100CADE0001000000000000000001003D
:10081000000100008813E8032C01E803ED39CC4601
:10082000ED39CC460A000A006400E803AC0D010073
:10083000640000000502140009090102000089009B
:1008400000000000000000000000000000000000A8
:100850000000000000000000000000000000000098
:100860000000000000000000000000000000000088
:100870000000000000000000000000000000000078
:10200000354936480A1A02D0072291438D46344991
:1020100034480A1A06D00722914381F30988022224
:1020200082F3148830483149314A00F044F831488D
:102030003149324A00F03FF831483249324A00F023
:102040003AF832483249334A00F035F832483349D9
:10205000334A00F030F833483349344A00F02BF863
:1020600033483449344A00F026F8344834490022D1
:1020700000F02CF833483449002200F027F83348A8
:102080003349091A082902DB002202604160314A03
:1020900090471F481F49884205D00268043003B4A6
:1020A000904703BCF7E700208646EC46002000215D
:1020B000294A9047FEE7884207D0521A05D0037894
:1020C00001300B700131013AF9D17047884202D0DA
:1020D00002700130FAE770470000042000E003209E
:1020E000000004200000042060B80200000000206E
:1020F00000010020D0210100D0210100BC89020094
:1021000060B8020000000020000000205C8A02008D
:102110005C8A02005C8A02005C8A02005C8A02001F
:102120005C8A02005C8A02005C8A02005FB80200DE
:1021300060B9020000010020000100200001002021
:10214000300B0120300B0120380B01204C0B0120FB
:102150004C2B01209D2101006DF30100FEE7FEE7FD
:10216000FEE7FEE7FEE7FEE7FEE7FEE7FEE7FEE747
:1021700000F002B8FFF7FCBF0F484FF0070188439B
:1021800085460E4880470E48016841F470010160A1
:10219000BFF34F8FBFF36F8FFFF732BF09480A4974
:1021A0000A4A884207D0521A05D0037801300B70D2
:1021B0000131013AF9D170470000042061EE0100BD
:1021C00088ED00E05C8A0200000000200000002092
:1021D00000487047280B0120FEE7037813F0040F36
:1021E00019D003F00303012B03D0022B0AD00120E6
:1021F00070470388C3F383130A68134402330B60E8
:10220000012070474388C3F389130A6813440233DB
:102210000B600120704700207047000030B585B08A
:102220002D4C04F5836003F0A9FB04F2144003F085
:10223000A5FB60680390A5682840023004EB80008D
:10224000043006E003982840831C234800EB8300F9
:10225000043003A9FFF7C1FF0028F3D100220BE0EF
:10226000039B591C03912B4002331B4901EB830351
:102270005B684DF822300132012AF1D99DF8003017
:1022800003F00303012B16D0022B1ED1BDF806402C
:10229000BDF80230C3F389130333039A02EB9303AF
:1022A00003930E4803F06FFB10B10B4B039A5A6077
:1022B000204605B030BDBDF80640BDF80030C3F380
:1022C0008312039B13440393EBE705494FF4BF705C
:1022D00003F010FB0024E4E7D0010020E405002017
:1022E0005C8A02000248034BC01AC008704700BF56
:1022F0005C8A0200BC890200034B58681B68984244
:1023000014BF002001207047D00100202DE9F041CA
:1023100084B0FFF7F1FF002840F01F810546904888
:102320000023C0F81834BFF34F8F436803938468C9
:102330002340023300EB8300043005E023400233E6
:10234000874800EB8303181D03A9FFF746FF28B356
:10235000834BD3F818341BBB814B1A68039B9A42FA
:10236000ECD87F4B5A60F4E0039B591C0391234047
:1023700002337B4901EB83035B684DF82230013265
:10238000012AF1D99DF8003003F00303022B09D094
:10239000012B74D0724BD3F81044C9E00022EFE750
:1023A0000022EDE7BDF80230C3F389173E46502FF7
:1023B00028BF502666F38F13ADF8023006F10801EE
:1023C000684803F0C8FB054600283ED003F0F4FB44
:1023D000002308226946284603F002FC039924EAF8
:1023E000010201329300B6EB820F3BD93BB101EA07
:1023F000040202325A4901EB8202111D00E05A49DF
:102400004BB1DCB24BB1DFF860814BB1F6B2DBB25D
:10241000F31ADEB205E0F4B2F4E74FF00008F4E797
:10242000002608232246284603F0DAFB04F10803BD
:10243000B8F1000F04D032464146284603F0D0FBE5
:102440000337039B03EB97070397002DA2D0444B60
:10245000D3F81044D3F81834002B47D0284603F0A3
:10246000B1FB71E001EA040302333D4901EB830152
:10247000082332460431284603F0B2FBE0E7BDF8FA
:102480000020C2F38313062B28BF062363F38912AF
:10249000ADF8002002339900324803F05CFB05469A
:1024A0000028D2D003F088FB002308226946284682
:1024B00003F096FB002608270FE0039B5A1C0392AB
:1024C00023400233264901EB83013B460422114499
:1024D000284603F085FB04370136BDF80030C3F30E
:1024E0008313B342E9D8B0E7E3681C684CB1E368F2
:1024F0005B79002BF8D023681B6829462046984753
:10250000F2E7284603F05EFB002003F0B7F9144B16
:10251000D3F8183413B9124B039A5A60002003F011
:10252000BDF911E023689B6820469847E3681C6862
:10253000002CF7D10D4B0E48C01AC00800040D49FD
:1025400040F0020000F018F8FFF7D6FE80F0010519
:10255000EDB2284604B0BDE8F0810025F9E700BFE0
:10256000D0010020380B0120DC010020BC890200D2
:102570002C8A0200C48A02002DE9F04705468A46EB
:10258000DFF8F880D8F80840002003F077F9D8F891
:102590000070D8F80820D8F80430DB1B134401334E
:1025A00012E0364E06F21C490121484603F0D0F9EC
:1025B000FFF734FE0146484603F0CAF9B268736873
:1025C00031685B1A13440133012BEAD9002201233D
:1025D00063F3010242F004026FF38912DFF89C807A
:1025E000D8F80010D8F808300B40023308EB83030A
:1025F0005A600231C8F80010002003F04FF94FEA8A
:102600001549002108F21C4003F082F980F31008FC
:10261000FFF768FE81452AD27B1C234049EA084027
:10262000164A023302EB830358603C40023402EB4B
:102630008404237965F3C5032371A3886FF3891399
:10264000A38063686AF39F2363602379012161F3A8
:1026500001032371DBB26FF38203237192F82034FC
:102660001BB1FFF753FE0028FBD1BDE8F0870449FA
:1026700040F2A31003F03EF9CEE700BFD0010020E6
:102680005C8A02002DE9F04782B006468A46019234
:10269000DFF81481D8F80840002003F0EFF8D8F8EC
:1026A0000050D8F80820D8F804305B1B13440133DD
:1026B00012E03D4F07F21C490121484603F048F95A
:1026C000FFF7ACFD0146484603F042F9BA687B6863
:1026D00039685B1A13440133022BEAD90022012323
:1026E00063F3010242F0040263F389122E49086881
:1026F0008B680340023301EB83035A6003300860A8
:10270000002003F0CBF8A81C002373B904EA0002F0
:1027100002A901EB830151F8047C911C224A02EBCF
:102720008102576001330130EFE74FEA164800217C
:102730001E4803F0EDF880F31009FFF7D3FD804544
:102740002BD26B1C234048EA0940174A023302EBA4
:10275000830358602C40023402EB8404237966F32F
:10276000C5032371A388012161F38913A3806368E2
:102770006AF39F236360237961F301032371DBB262
:102780006FF38203237192F820341BB1FFF7BEFD73
:102790000028FBD102B0BDE8F087054940F2A31044
:1027A00003F0A8F8CDE700BFD0010020EC05002021
:1027B0005C8A02002DE9F04782B006468A46009204
:1027C0000193DFF81C81D8F80840002003F056F888
:1027D000D8F80050D8F80820D8F804305B1B134410
:1027E000013312E03E4F07F21C490121484603F035
:1027F000AFF8FFF713FD0146484603F0A9F8BA68A1
:102800007B6839685B1A13440133032BEAD9002231
:10281000012363F3010242F00402022363F38912ED
:102820002F4908688B680340023301EB83035A6029
:1028300004300860002003F031F8A81C0023012BAD
:102840000ED804EA000202A901EB830151F8087CCA
:10285000911C234A02EB8102576001330130EEE7FD
:102860004FEA164800211F4803F052F880F3100980
:10287000FFF738FD80452CD26B1C234048EA094005
:10288000174A023302EB830358602C40023402EBF8
:102890008404237966F3C5032371A388022161F3BD
:1028A0008913A38063686AF39F23636023790121FE
:1028B00061F301032371DBB26FF38203237192F89A
:1028C00020341BB1FFF722FD0028FBD102B0BDE888
:1028D000F087054940F2A31003F00CF8CCE700BFE5
:1028E000D0010020EC0500205C8A02002DE9F047B1
:1028F00084B006468A46019202930C9B0393DFF84C
:102900001C81D8F80840002002F0B8FFD8F8005029
:10291000D8F80820D8F804305B1B1344013312E0C8
:102920003E4F07F21C490121484603F011F8FFF71A
:1029300075FC0146484603F00BF8BA687B683968B5
:102940005B1A13440133042BEAD90022012363F3F9
:10295000010242F00402032363F389122F4908683D
:102960008B680340023301EB83035A600530086033
:10297000002002F093FFA81C0023022B0ED804EACB
:10298000000204A901EB830151F80C7C911C234A3D
:1029900002EB8102576001330130EEE74FEA16483F
:1029A00000211F4802F0B4FF80F31009FFF79AFCE2
:1029B00080452CD26B1C234048EA0940174A023359
:1029C00002EB830358602C40023402EB8404237929
:1029D00066F3C5032371A388032161F38913A380E0
:1029E00063686AF39F2363602379012161F3010324
:1029F0002371DBB26FF38203237192F820341BB191
:102A0000FFF784FC0028FBD104B0BDE8F08705493E
:102A100040F2A31002F06EFFCCE700BFD00100200F
:102A2000EC0500205C8A02002DE9F04786B00646DE
:102A30008A46019202930E9B03930F9B0493109B73
:102A40000593DFF81C81D8F80840002002F016FF3B
:102A5000D8F80050D8F80820D8F804305B1B13448D
:102A6000013312E03E4F07F21C490121484602F0B3
:102A70006FFFFFF7D3FB0146484602F069FFBA68D3
:102A80007B6839685B1A13440133062BEAD90022AC
:102A9000012363F3010242F00402052363F3891268
:102AA0002F4908688B680340023301EB83035A60A7
:102AB00007300860002002F0F1FEA81C0023042B60
:102AC0000ED804EA000206A901EB830151F8147C38
:102AD000911C234A02EB8102576001330130EEE77B
:102AE0004FEA164800211F4802F012FF80F3100938
:102AF000FFF7F8FB80452CD26B1C234048EA0940C5
:102B0000174A023302EB830358602C40023402EB75
:102B10008404237966F3C5032371A388052161F337
:102B20008913A38063686AF39F236360237901217B
:102B300061F301032371DBB26FF38203237192F817
:102B400020341BB1FFF7E2FB0028FBD106B0BDE843
:102B5000F087054940F2A31002F0CCFECCE700BF9D
:102B6000D0010020EC0500205C8A020010B5094B62
:102B7000D3F81044012283F8202408E0E3680122FE
:102B80005A7123685B6820469847E3681C68002CEC
:102B9000F4D110BDD0010020002303B170474FF0E5
:102BA000A0420C21C2F808170133F6E710B504461D
:102BB000032812D8104B1C5D2F2C13D81F2C17D9AB
:102BC00004F01F040D4BD3F8043523FA04F414F079
:102BD000010F0CBF0120002010BD09493A2002F06E
:102BE00089FEE7E7074940F2CD1002F083FEE5E7F2
:102BF0004FF0A043E7E700BF5C8B020000030050EA
:102C0000DC8A0200348B020010B5044603280ED87B
:102C10000E4B1C5D2F2C0FD81F2C13D904F01F0452
:102C20000B4A012303FA04F4C2F80C4510BD09490C
:102C3000412002F05FFEEBE7074940F2CD1002F0C1
:102C400059FEE9E74FF0A042EBE700BF5C8B0200C2
:102C500000030050DC8A0200348B020010B50446E9
:102C600003280ED80E4B1C5D2F2C0FD81F2C13D908
:102C700004F01F040B4A012303FA04F4C2F80845C8
:102C800010BD0949472002F035FEEBE7074940F245
:102C9000CD1002F02FFEE9E74FF0A042EBE700BFB6
:102CA0005C8B020000030050DC8A0200348B0200BF
:102CB00010B5002403E02046FFF7D0FF0134032CB9
:102CC000F9D910BD38B500250DE00E4940F2CD1000
:102CD00002F010FE0DE04FF0A04304F5E074032273
:102CE00043F824200135032D09D8074B5C5D2F2CB8
:102CF000EBD81F2CEFD904F01F04044BEDE7FFF7CE
:102D0000D7FF38BD348B02005C8B020000030050FB
:102D100010B5002403E02046FFF776FF0134032CB2
:102D2000F9D910BD10B50446032814D8114B1C5D09
:102D30002F2C15D81F2C19D904F01F040E49D1F8D7
:102D400004350122A24022EA0300C1F8080513401D
:102D5000C1F80C3510BD09495F2002F0CBFDE5E755
:102D6000074940F2CD1002F0C5FDE3E74FF0A04166
:102D7000E5E700BF5C8B020000030050DC8A020024
:102D8000348B02000346002010B14FF0FF30704733
:102D9000022BFCD00130F7E710B5044610F0010F0C
:102DA00003D114F0020F03D110BDFFF78BFFF8E73A
:102DB000FFF7F2FEF8E71AB9084206D1104670474D
:102DC00031EA000303D00020704701207047012042
:102DD000704710B5182002F061F9044620B10023B5
:102DE00040F8043B00F0C8F8204610BD2DE9F84338
:102DF0000D4617461E46DDF820808146D8B115F0F5
:102E00007F4F1ED11DB301F03DFC10B9B8F1000F8A
:102E100023D101F07BF9D9F80040324629462046FB
:102E2000FFF7C9FFF8B18FB324EA0503C9F80030F2
:102E30004FF000082CE02C494FF4997002F05AFD35
:102E4000DDE7294940F2331002F054FDDAE7264964
:102E50004FF49A7002F04EFDD5E7234940F2371047
:102E600002F048FDD5E7B8F1000F11D05FB900219D
:102E70000EB141F080614246294309F1040001F09E
:102E8000E1FA002404E04FF08071F1E74FF0000810
:102E900001F0D2F9B8F1000F11D040B9134B4FF047
:102EA00080525A6040BFBFF34F8FBFF36F8F01F066
:102EB000D9FC044610F0007F04D024F07F44204663
:102EC000BDE8F88300F07EF9D9F800403246294683
:102ED0002046FFF770FF20B11FB124EA0505C9F8AD
:102EE000005000F08DF9E8E7608B020000ED00E093
:102EF000F8B50D46044660B115F07F4F0FD104F1CF
:102F00000C0601F003F9206923682B432360002796
:102F100016E018494FF4017002F0ECFCECE715499B
:102F200040F2052002F0E6FCE9E7216832EA0101FF
:102F300005D111E0216841F0007101F00FFB284636
:102F4000B0420ED04568036823F07F4213F0806FD3
:102F5000EBD121681142F2D013F0807FEAD0174301
:102F6000E8E7236823EA0703236001F065F9206896
:102F7000F8BD00BF608B020000F1080343604FF012
:102F8000FF328260C3600361002303607047002347
:102F90000361704743684B609A688A60516099602A
:102FA0000861036801330360704730B40D68B5F100
:102FB000FF3F11D000F108031C465B681A68AA4263
:102FC000FAD963684B6099608C606160086103683E
:102FD0000133036030BC70470469F2E7036941685C
:102FE00082688A60416851605A68824206D0002235
:102FF00002611A68013A1A601868704782685A605C
:10300000F5E700000548006880F3088862B661B6FD
:10301000BFF34F8FBFF36F8F00DF00BF00000000D2
:10302000064B19680868B0E8F04F80F30988BFF3D1
:103030006F8F4FF0000080F311887047100600205A
:10304000EFF30980BFF36F8F144B1A681EF0100F57
:1030500008BF20ED108A20E9F04F10604DF8043DC4
:103060004FF0A00080F31188BFF34F8FBFF36F8F35
:1030700001F084F94FF0000080F3118808BC196852
:103080000868B0E8F04F1EF0100F08BFB0EC108ACF
:1030900080F30988BFF36F8F704700BF10060020D0
:1030A000034AD2F8883043F47003C2F8883070477E
:1030B00000ED00E008B5074B1B68B3F1FF3F03D1FB
:1030C000A02383F31188FEE703499E2002F012FC3F
:1030D000F6E700BFFC050020C08B02004FF08073B4
:1030E00040F8043C40F8081C054B40F80C3C40F804
:1030F000202C6FF0020340F8243C4438704700BF96
:10310000B530010010B582B0264B1A68264B9A42A2
:1031100013D1264B1A78D2B20192FF221A701B7873
:10312000DBB28DF803309DF8033003F00503204A2D
:103130001370204B07221A600EE01F49B02002F0E6
:10314000D9FBE6E71B4A1368013B13609DF8033087
:103150005B00DBB28DF803309DF8033013F0800F75
:10316000F0D1144A136803F007031360019BDBB22C
:103170000E4A13700B4CE02384F8223000F0BAF8AA
:103180000E4B00221A60FFF78BFF0D4A536B43F082
:1031900040435363236943F010032361FFF732FF79
:1031A000FFF788FF00ED00E041C20F4100E400E0BE
:1031B000F4050020F8050020C08B0200FC0500206B
:1031C00000EF00E008B5A02383F31188094A1368D3
:1031D00001331360012B00D008BD074B5B68C3F3BC
:1031E0000803002BF8D0054940F2111002F082FBD1
:1031F000F2E700BFFC05002000ED00E0C08B0200FC
:1032000008B5084B1B683BB1064A1368013B1360C5
:103210000BB983F3118808BD03494FF48C7002F099
:1032200069FBF1E7FC050020C08B020008B5EFF355
:103230000583C3F308030F2B09D903F1E023F0330F
:1032400093F80033DBB20C4A12789A4208D80B4B41
:10325000DB68C3F302230A4A12689A4206D308BD08
:1032600008494FF4A97002F045FBF0E705494FF417
:10327000B17002F03FFBF2E7F405002000ED00E042
:10328000F8050020C08B0200F0B583B0EFF3118782
:10329000A02383F31188154BD3F804450022C3F80B
:1032A0000021D3F800310193019B00F037FF241A6D
:1032B00024F07F4434F0010301D1002509E001F03E
:1032C000E1F90228F9D00124F7E700F035FF0543C2
:1032D0003446661E002CF8D125B1054B4FF08052C4
:1032E0005A6040BF87F3118803B0F0BD0010014061
:1032F00000ED00E008B5002006F03EF8094B202262
:10330000C3F808250122C3F804239A601A60022238
:10331000C3F84423044BE02283F811234FF4003216
:103320001A6008BD0010014000E100E00346406A59
:1033300018B11B6B1868C0F10300704710B5044644
:10334000FFF740FFA26BE36B9A4204D00024FFF723
:1033500057FF204610BD0124F9E710B50446FFF7DA
:1033600031FFA36B23B90124FFF74AFF204610BDAC
:103370000024F9E770B504461546866B026C5AB90D
:1033800003681BB100200136A66370BD406801F0E0
:10339000D5F900236360F6E76DB9806814F026FC68
:1033A000226CA3681344A3606268934219D3236814
:1033B000A3602846E7E7C06814F018FC226C51426D
:1033C000E3689B1AE3602268934202D263680B446D
:1033D000E360022D01D00020D5E726B1013E002098
:1033E000D1E72846CFE70020CDE70346026C6AB15B
:1033F00010B50846D9681144D9605C68A14201D370
:103400001968D960D96814F0F1FB10BD704738B560
:103410000546FFF7D7FE95F8454064B201E0013C50
:1034200064B2002C0ADD6B6A43B105F1240001F09F
:1034300051F80028F3D001F01FF9F0E7FF2385F8D9
:103440004530FFF7DDFEFFF7BDFE95F8444064B25E
:1034500001E0013C64B2002C0ADD2B6943B105F1A7
:10346000100001F037F80028F3D001F005F9F0E77B
:10347000FF2385F84430FFF7C3FE38BD38B50D464D
:103480000446D0B1FFF79EFE2368E26B216C01FB7E
:10349000023060600020A063A360013A02FB0133A8
:1034A000E360FF2384F8443084F84530D5B92369BC
:1034B00043B9FFF7A5FE012038BD0F49FC2002F0FB
:1034C00019FADFE704F1100001F004F80028F0D049
:1034D0000A4B4FF080525A6040BFBFF34F8FBFF38B
:1034E0006F8FE6E704F11000FFF746FD04F12400BA
:1034F000FFF742FDDDE700BF2C8C020000ED00E08D
:1035000010B5034602980C4631B90060C3630464E9
:103510000121FFF7B3FF10BD0260F7E7F0B583B0FC
:103520000C461546074690B1BCB104FB07F0483085
:1035300001F0B4FD064638B100902B4600F1480278
:1035400021463846FFF7DCFF304603B0F0BD0449A2
:1035500040F26D1002F0CEF9E6E72046E7E700BF43
:103560002C8C0200F0B585B00F4601921D46044632
:1035700048B177B1022D15D001F084F808B9019B4C
:10358000CBB9002659E051494FF4377002F0B2F937
:10359000EFE7236C002BEDD04C4940F2DD2002F028
:1035A000A9F9E7E7E36B012BE6D0484940F2DE20BA
:1035B00002F0A0F9E0E7454940F2E12002F09AF973
:1035C000DFE72A4639462046FFF7D4FE636A73B91F
:1035D00040B13F4B4FF080525A6040BFBFF34F8F16
:1035E000BFF36F8FFFF70CFE012005B0F0BD04F1B3
:1035F000240000F06FFF0028F4D0354B4FF08052CC
:103600005A6040BFBFF34F8FBFF36F8FEAE7FFF7FA
:10361000F7FD0020E9E702A800F0E4FF012619E029
:10362000002384F8443021E0002384F8453023E06F
:103630002046FFF7ECFE00F0FFFDFFF7C3FDA26B95
:10364000E36B9A42BDD3022DBBD0019B002BDED091
:10365000002EE0D0FFF7D4FD00F058FDFFF7B2FDDB
:1036600094F8440040B2B0F1FF3FD9D094F845003F
:1036700040B2B0F1FF3FD7D0FFF7C2FD01A902A8C9
:1036800000F0BCFFD0B92046FFF758FE0028CFD08D
:10369000019904F1100000F0BBFE2046FFF7B7FED1
:1036A00000F0CAFD0028C8D1094B4FF080525A6083
:1036B00040BFBFF34F8FBFF36F8FBEE72046FFF7CA
:1036C000A6FE00F0B9FD00208FE700BF2C8C0200A1
:1036D00000ED00E048B108B5002141600160C16023
:1036E0000B460A46FFF73EFF08BD704710B502467D
:1036F00000210120FFF712FF0446FFF7EBFF2046F1
:1037000010BD00002DE9F8430E4691461D460446C3
:10371000A0B1CEB1022D20D0FFF788FDEFF31188C4
:10372000A02383F31188A26BE36B9A421ED3022D70
:103730001CD0002088F31188BDE8F8831E4940F2B0
:10374000A23002F0D7F8E4E7236C002BE2D01A494C
:1037500040F2A33002F0CEF8DCE7E36B012BDBD0C4
:1037600015494FF4697002F0C5F8D5E794F8457033
:103770007FB22A4631462046FFF7FCFDB7F1FF3FF6
:1037800005D001377FB284F845700120D2E7636A23
:103790000BB90120CEE704F1240000F09BFE30B10C
:1037A000B9F1000F05D00120C9F80000C2E70120DF
:1037B000C0E70120BEE700BF2C8C020070B50E46AA
:1037C0000446E0B1236C03BB236823B3FFF72EFD4F
:1037D000EFF31185A02383F31188A26BE36B93426F
:1037E0002FD994F845305BB20132A263B3F1FF3FA9
:1037F0001AD001335BB284F84530012022E015492C
:1038000040F23F4002F076F8DCE7124940F24340D4
:1038100002F070F8D8E76368002BD7D00D494FF459
:10382000896002F067F8D1E7636A0BB9012009E00B
:1038300004F1240000F04EFE38B146B101203060A2
:1038400000E0002085F3118870BD0120FAE7012017
:10385000F8E700BF2C8C0200F0B585B00F4601924E
:10386000044638B167B100F00DFF08B9019B83B978
:10387000002652E0494940F2DF4002F03BF8F1E710
:10388000236C002BEFD0454940F2E34002F032F8C0
:10389000E9E742494FF49D6002F02CF8E8E7394629
:1038A0002046FFF7A2FD013DA563236923B9FFF779
:1038B000A7FC012005B0F0BD04F1100000F00AFEE5
:1038C0000028F4D0364B4FF080525A6040BFBFF30F
:1038D0004F8FBFF36F8FEAE7FFF792FC0020E9E715
:1038E00002A800F07FFE012621E0002384F8443086
:1038F00029E0002384F845302BE02046FFF787FDC0
:1039000000F09AFC09E02046FFF781FD00F094FCEE
:103910002046FFF722FD00283ED1FFF753FCA56BA0
:10392000002DBCD1019B002BD6D0002ED8D0FFF7A4
:1039300067FC00F0EBFBFFF745FC94F844305BB20A
:10394000B3F1FF3FD1D094F845305BB2B3F1FF3F04
:10395000CFD0FFF755FC01A902A800F04FFE0028C8
:10396000D1D12046FFF7F9FC0028C6D0019904F117
:10397000240000F04DFD2046FFF749FD00F05CFCFF
:103980000028CAD1064B4FF080525A6040BFBFF3A7
:103990004F8FBFF36F8FC0E700208BE72C8C0200A6
:1039A00000ED00E070B584B00191044648B1236C8D
:1039B0006BB900F067FE08B9019B73B90026354664
:1039C00061E0594940F2715001F094FFEFE7564928
:1039D00040F2755001F08EFFEBE7534940F27A5008
:1039E00001F088FFEAE7013BA363236833B1236951
:1039F00043B9FFF705FC012004B070BD00F03EFFA5
:103A00006060F4E704F1100000F064FD0028F0D0DD
:103A1000464B4FF080525A6040BFBFF34F8FBFF309
:103A20006F8FE6E71EB9FFF7EBFB0020E4E73E49A6
:103A300040F2C25001F05EFFF5E702A800F0D2FDAF
:103A400001252AE0002384F8443032E0002384F882
:103A5000453034E0FFF7B6FB606800F023FE064611
:103A6000FFF7CEFB3BE02046FFF7D1FC00F0E4FB84
:103A700009E02046FFF7CBFC00F0DEFB2046FFF715
:103A80006CFC002841D1FFF79DFBA36B002BAAD152
:103A9000019B002BC6D0002DCFD0FFF7B1FB00F06B
:103AA00035FBFFF78FFB94F844305BB2B3F1FF3F77
:103AB000C8D094F845305BB2B3F1FF3FC6D0FFF7F2
:103AC0009FFB01A902A800F099FD0028D1D1204652
:103AD000FFF743FC0028C6D02368002BBAD0019919
:103AE00004F1240000F094FC2046FFF790FC00F065
:103AF000A3FB0028C7D10D4B4FF080525A6040BF46
:103B0000BFF34F8FBFF36F8FBDE70EB9002073E790
:103B1000FFF758FB2046FFF709FC0146606800F0FC
:103B200051FEFFF76DFBF1E72C8C020000ED00E089
:103B30002DE9F8430C461646054670B19CB1FFF7D7
:103B400075FBEFF31189A02383F31188AF6B9FB945
:103B5000002089F31188BDE8F8831A4940F2DD603E
:103B600001F0C8FEEAE72B6C002BE8D0154940F2C3
:103B7000DE6001F0BFFEE2E795F844804FFA88F876
:103B800021462846FFF731FC013FAF63B8F1FF3F04
:103B900007D008F101084FFA88F885F84480012021
:103BA000D7E72B690BB90120D3E705F1100000F02E
:103BB00091FC18B126B101203060CAE70120C8E7A6
:103BC0000120C6E72C8C02000023012B0CD8074AE9
:103BD00052F833200AB10133F7E7044A42F83310B0
:103BE00002EBC30358607047704700BF0006002017
:103BF0000023012B0FD8084A02EBC302526882420D
:103C000001D00133F5E7044A002142F8331002EBFA
:103C1000C3035960704770470006002010B5044682
:103C200030B12046FFF7E4FF204601F0ADFA10BDA9
:103C3000024940F29A7001F05DFEF2E72C8C02001E
:103C400070B504460D461646FFF7BCFA94F84430AA
:103C50005BB2B3F1FF3F0DD094F845305BB2B3F1E6
:103C6000FF3F0BD0FFF7CCFAA36B5BB12046FFF709
:103C7000CEFB70BD002384F84430EDE7002384F8C8
:103C80004530EFE73246294604F1240000F004FCF9
:103C9000ECE70000084B1B681B6823B9074B4FF08B
:103CA000FF321A607047044B1B68DB68DB685A6898
:103CB000024B1A60704700BF140600209C060020CB
:103CC00010B50446006B01F05FFA204601F05CFA83
:103CD00010BD2DE9F04780460D4617469946089ECF
:103CE000DDF824A00A9C9200A521206B13F0A7FF09
:103CF000236B07F18042013A03EB820727F00707A5
:103D00004FF0000CBCF1030F0BD815F80C2004EB9E
:103D10000C0383F8342015F80C3013B10CF1010CAE
:103D2000F0E7002384F83730022E00D90226E6623D
:103D3000A6630025E563201DFFF729F904F11800AB
:103D4000FFF725F92461C6F10306A66164622564C4
:103D500084F844504A4641463846FFF7BFF9206090
:103D6000BAF1000F01D0CAF80040BDE8F0870000AA
:103D700038B5002407E004EB840293000E48184491
:103D8000FFF7FAF80134022CF5D90C4D2846FFF75D
:103D9000F3F80B4C2046FFF7EFF80A48FFF7ECF872
:103DA0000948FFF7E9F80948FFF7E6F8084B1D60F6
:103DB000084B1C6038BD00BF1C06002070060020A8
:103DC00084060020A4060020D0060020BC060020A7
:103DD000140600201806002010B50446FFF7F2F97B
:103DE000214A136801331360204B1B685BB1204BE1
:103DF0001B686BB91D4B1B68DA6AE36A9A4207D8E5
:103E00001A4B1C6004E0194B1C601368012B27D06F
:103E1000184A136801331360E36A174A1268934221
:103E200001D9154A136003EB8303211D134800EBEE
:103E30008300FFF7AFF8FFF7E3F90D4B1B6873B191
:103E40000A4B1B68DA6AE36A9A4208D20C4B4FF0BD
:103E500080525A6040BFBFF34F8FBFF36F8F10BDCA
:103E6000FFF786FFD4E700BF5806002010060020A9
:103E7000B8060020680600206C0600201C06002002
:103E800000ED00E00F4B1B68D3B110B5FFF79AF9B6
:103E90000D4BDB68DC68201DFFF7A0F80B4A1368A8
:103EA000013B1360074A1368013B1360FFF7A8F951
:103EB0002046FFF705FF034B1B68002BE6D110BD22
:103EC000704700BF5C060020D00600205806002086
:103ED00008B5FFF7D7FF074B1B68012BF9D9064B35
:103EE0004FF080525A6040BFBFF34F8FBFF36F8FC8
:103EF000EFE700BF1C06002000ED00E070B50446AF
:103F00000D46174B1E68174B18680430FFF766F80C
:103F1000B4F1FF3F0DD03444124B1B685C60A642E5
:103F200010D9114B18680F4B19680431FFF73DF891
:103F300070BD002DEFD00B4B196804310B48FFF713
:103F400029F8F5E70A4B1868064B19680431FFF7A2
:103F50002CF8084B1B68A342EAD9064B1C60E7E724
:103F6000E40600201006002018060020BC060020F1
:103F7000140600209C0600202DE9F04385B007467A
:103F8000884614461E46900001F088F8F0B181463C
:103F9000482001F083F80546A0B1C0F83090D5B1B3
:103FA0000023039302950D9B01930C9B00933346D2
:103FB000224641463846FFF78CFE2846FFF70CFFA5
:103FC000012005E0484601F0DFF8E8E74FF0FF3058
:103FD00005B0BDE8F0834FF0FF30F9E738B504468F
:103FE000FFF7F0F824B3251D2846FEF7F7FFA36A74
:103FF0001BB104F11800FEF7F1FF1D4A13680133ED
:1040000013601C4B1B68A34215D01B4A1368013B6D
:1040100013602046FFF754FEFFF73CFEFFF7F0F871
:10402000164B1B681BB1134B1B68A3420CD038BD49
:10403000104B1C68D7E729461148FEF7ABFF114A21
:10404000136801331360E9E70F4B1B684BB90F4B43
:104050004FF080525A6040BFBFF34F8FBFF36F8F56
:10406000E5E70B4940F2A54001F044FCEFE700BF53
:10407000680600201006002058060020B806002020
:10408000D00600205C0600206406002000ED00E061
:10409000888C020000B583B0154B01930023009378
:1040A000C82214491448FFF767FF012807D00128E8
:1040B00008D0B0F1FF3F15D003B05DF804FB00F06D
:1040C000ABFDF4E7A02383F311880C4B4FF0FF32D4
:1040D0001A600B4B01221A600A4B00221A60FFF78C
:1040E00011F8E9E7084940F2DC7001F003FCE3E76E
:1040F00098060020E48C0200D13E01009C060020BE
:10410000B8060020E4060020888C0200024A1368EA
:1041100001331360704700BF64060020014B18682C
:10412000704700BFE406002008B5FFF77FF8014B99
:10413000186808BDE4060020F8B5334B1B68002B57
:1041400056D1324B1E6801361E607EB9304B1B685B
:104150001B688BB92E4A11682E4B186810601960C5
:104160002D4A136801331360FFF794FD2B4B1B6836
:10417000B34233D9002740E0294940F6332001F00B
:10418000B9FBE7E70127224B1B681B6843B3204BB1
:104190001B68DB68DC6863689E4226D3251D2846C1
:1041A000FEF71CFFA36A1BB104F11800FEF716FF0F
:1041B000E36A1C4A1268934201D91A4A136003EB5E
:1041C00083039A00294618481044FEF7E3FEE26A8A
:1041D000164B1B68DB6A9A42D4D2D4E70027D2E799
:1041E0000E4B4FF0FF321A6007E00C4A136004E0F8
:1041F0000F4A13680133136000270E4B1B6803B18D
:1042000001273846F8BD00BF64060020E406002000
:104210001406002018060020A00600209C0600209E
:10422000888C02006C0600201C060020100600206E
:1042300060060020E806002038B5334B1B686BB1E0
:10424000FEF7C0FF304B1A68013A1A601B68002B5A
:1042500054D12E4B1B683BB9002450E02C494FF43D
:10426000046001F047FBEBE700242A4B1B681BB3FB
:10427000284BDB68DC6804F11800FEF7AFFE251D53
:104280002846FEF7ABFEE06A234B1B68984201D933
:10429000214B186000EB80002946204B03EB800087
:1042A000FEF778FEE26A1E4B1B68DB6A9A42DCD39B
:1042B0001C4B01221A60D8E70CB1FFF7EBFC1A4B3C
:1042C0001C687CB9174B1C68CCB1184B4FF080525E
:1042D0005A6040BFBFF34F8FBFF36F8F01240EE0D2
:1042E000013C07D0FFF728FF0028F9D00D4B012231
:1042F0001A60F5E70C4B00221A60E3E70024FEF792
:104300007FFF204638BD00BF64060020580600200D
:10431000888C0200A40600206C0600201C060020E9
:1043200010060020E80600206006002000ED00E0F6
:1043300010B560B104460E4B1B6893B9FFF7E6FE5B
:1043400000212046FFF7DAFDFFF776FF40B9094B61
:104350004FF080525A6040BFBFF34F8FBFF36F8F53
:1043600010BD054940F20F5001F0C4FAE6E700BF66
:104370006406002000ED00E0888C02001E4B1B68E4
:104380001BB11E4B01221A60704710B51B4B002257
:104390001A601B4B1C6800E0013C04EB8402930094
:1043A000184AD3583BB9002CF6D117494FF4356061
:1043B00001F0A0FAF0E704EB84018B001344596884
:1043C0004968596004EB8400830008331A44914221
:1043D0000BD004EB84039A000A4B13445B68DA6841
:1043E0000A4B1A60064B1C6010BD49688200054BE1
:1043F00013445960EDE700BF64060020E806002082
:104400006C0600201C060020888C0200100600208C
:1044100038B50C46054650B1084B19681831284686
:10442000FEF7C3FD01212046FFF768FD38BD0449B2
:104430004FF4366001F05EFAEEE700BF1006002090
:10444000888C020070B50C461546064688B10F4BA5
:104450001B68A3B10E4B1A6844F0004494611968BC
:1044600018313046FEF796FD01212846FFF746FD3C
:1044700070BD084940F6713001F03CFAE7E70549A4
:1044800040F6753001F036FAE4E700BF640600201C
:1044900010060020888C020070B50D4614460646B2
:1044A00068B10A4B196818313046FEF773FD0CB13C
:1044B0004FF0FF3521462846FFF720FD70BD044927
:1044C00040F68B3001F016FAEBE700BF1006002033
:1044D000888C020038B5C368DC6824B304F1180581
:1044E0002846FEF77BFD164B1B6813BB251D28468F
:1044F000FEF774FDE06A134B1B68984201D9114B1B
:10450000186000EB800029460F4B03EB8000FEF79C
:1045100041FDE26A0D4B1B68DB6A9A420ED901200D
:104520000B4B186038BD0B4940F6BB3001F0E2F987
:10453000D4E729460848FEF72DFDEAE70020F1E719
:10454000640600206C0600201C06002010060020D7
:10455000E8060020888C0200A406002038B5044636
:104560000D461A4B1B6823B345F000452560E568EE
:104570002DB32046FEF732FD2C1D2046FEF72EFD02
:10458000E86A134B1B68984201D9114B186000EB85
:10459000800021460F4B03EB8000FEF7FBFCEA6A2C
:1045A0000D4B1B68DB6A9A4202D90C4B01221A6040
:1045B00038BD0B4940F6F23001F09CF9D4E70849C8
:1045C00040F6FA3001F096F9D3E700BF6406002008
:1045D0006C0600201C06002010060020E8060020C3
:1045E000888C0200034B1B680360034B1B6843600D
:1045F000704700BFA0060020E4060020F8B50C4676
:104600000546B8B1E4B1FEF7DDFD184B19686B68DB
:10461000C81A2268B2F1FF3F20D0154E36682F68C5
:10462000B74201D08B421ED982420FD800232360AB
:10463000012414E00F4940F6264001F05BF9E1E760
:104640000C4940F6274001F055F9DCE75B1A1344AA
:1046500023602846FFF7C6FF002400E00024FEF791
:10466000CFFD2046F8BD0124F9E700BFE406002095
:10467000A0060020888C0200014B01221A607047BE
:10468000E8060020054B1B6833B1054B1B680BB1D6
:10469000002070470220704701207047B8060020B4
:1046A0006406002000283FD038B50446C36A204A7B
:1046B0001268D26A93422FD28269002A05DB1C4A13
:1046C0001268D26AC2F103028261616903EB83035B
:1046D000184A02EB8303994205D0154B1B68DB6A2D
:1046E000E362012038BD251D2846FEF777FC104BFC
:1046F0001B68D86AE062104B1B68984209D800EB2F
:10470000800029460B4B03EB8000FEF743FC0120A1
:10471000E8E7094B1860F2E7826B054B1B68DB6A20
:104720009A4203D30020DDE7002070470120D9E73B
:10473000100600201C0600206C060020002835D042
:1047400038B504461B4B1B68834204D01A4940F617
:104750003B7001F0CFF8E36B4BB1E36B013BE363DC
:10476000E16AA26B914223D03BB1002038BD1249CF
:1047700040F63C7001F0BEF8EFE7251D2846FEF735
:104780002DFCA06BE062C0F10303A3610B4B1B681F
:10479000984201D9094B186000EB80002946084B6C
:1047A00003EB8000FEF7F6FB0120DFE700207047F7
:1047B0000020DBE710060020888C02006C06002039
:1047C0001C060020002843D070B50D460446C36B7C
:1047D00053B1A66BAE4200D22E46E36AB34202D07A
:1047E000E36B012B06D070BD1A4940F68A7001F0C8
:1047F00081F8EEE7184B1B68A34223D0E36AE66218
:10480000A269002A02DBC6F10306A661616903EB17
:104810008303124A02EB83039942E4D1251D284603
:10482000FEF7DCFBE06A0E4B1B68984201D90C4B8B
:10483000186000EB80002946084B03EB8000FEF770
:10484000A9FBD0E7034940F6A57001F053F8D5E77E
:10485000704700BF888C0200100600201C06002054
:104860006C060020044A136898691368DB6A1268B2
:10487000C3F103039361704710060020054B1B68CA
:1048800023B1044B1A68D36B0133D363014B18680F
:10489000704700BF10060020F8B506460F461446C4
:1048A0001D46FEF78FFC214B1B6893F84420D2B2C3
:1048B000022A0AD01D4B1A68106C20EA06061664FC
:1048C0001B68012283F84420CDB9FEF799FCFEF75E
:1048D00079FC1CB1154B1B681B6C2360134B1B68C8
:1048E00093F84430DBB2022B17D000240F4B1B6827
:1048F000002283F84420FEF783FC2046F8BD1146D1
:104900002846FFF7FBFA0A4B4FF080525A6040BF2F
:10491000BFF34F8FBFF36F8FD7E7044B1B68196C42
:1049200021EA07071F640124E0E700BF100600200A
:1049300000ED00E0F8B50F4615461E46044688B166
:10494000FEF740FC0EB1236C336094F84430DBB2C8
:10495000022284F844206A1E032A20D8DFE802F0ED
:104960000812171A254941F2D61000F0C3FFE7E7F5
:10497000216C0F4327640125012B14D0FEF740FC66
:104980002846F8BD226C013222640125F4E7276431
:104990000125F1E7022B04D027640125ECE701256E
:1049A000EAE70025E8E7261D3046FEF717FBE06A38
:1049B000134B1B68984201D9114B186000EB800023
:1049C0003146104B03EB8000FEF7E4FAA36A23B1F3
:1049D0000A4941F20E2000F08DFFE26A0A4B1B6883
:1049E000DB6A9A42CAD9094B4FF080525A6040BFE5
:1049F000BFF34F8FBFF36F8FC0E700BF888C0200FB
:104A00006C0600201C0600201006002000ED00E0CF
:104A10002DE9F0410F4615461E460446B0B1FEF79B
:104A200005FCEFF31188A02383F311880EB1236CEA
:104A3000336094F84430DBB2022284F844206A1ECA
:104A4000032A21D8DFE802F00813181B2A4941F293
:104A5000412000F04FFFE2E7216C0F43276401255E
:104A6000012B15D088F311882846BDE8F081226C0F
:104A7000013222640125F3E727640125F0E7022BC8
:104A800004D027640125EBE70125E9E70025E7E7E6
:104A9000A36A23B1184941F2882000F02BFF174B7D
:104AA0001B68F3B9261D3046FEF798FAE06A144BEE
:104AB0001B68984201D9124B186000EB8000314608
:104AC000104B03EB8000FEF765FAE26A0E4B1B68A1
:104AD000DB6A9A42C6D9069B4BB10123069A136042
:104AE000C0E704F118010948FEF754FAEDE7084B56
:104AF00001221A60B6E700BF888C0200640600201D
:104B00006C0600201C06002010060020A4060020D1
:104B1000E8060020064B1A681368B3FA83F35B09B2
:104B2000036013B9D368186870470020704700BF4E
:104B3000EC06002008B54160006191420CD8D21A01
:104B400083699A4201D3012008BD011D094B1868F1
:104B5000FEF72BFA0020F7E79A4201D2994206D2DB
:104B6000011D054B1868FEF720FA0020ECE7012034
:104B7000EAE700BFF0060020EC06002038B5FEF79B
:104B800021FB0F4B1B6813B1FEF73AFB38BD0D4DEF
:104B90002846FEF7F1F90C4C2046FEF7EDF90B4BD9
:104BA0001D600B4B1C60002210212020FEF7B6FC7C
:104BB000034B18600028E7D00649FFF705F8E3E744
:104BC00020070020F406002008070020EC06002043
:104BD000F0060020EC8C02002DE9F0410746164655
:104BE0001D46079C884671B15CB1FFF7C7FF27607F
:104BF000C4F81880E6612562069B6362201DFEF7FB
:104C0000C6F9BDE8F081034940F2691000F072FE78
:104C1000EAE700BFF48C020010B582B0FFF7AEFFE8
:104C20000C4B1B689BB10C4B019302230093002398
:104C300050220A490A48FFF79FF9044620B909495A
:104C40004FF4887000F056FE204602B010BD0024DC
:104C5000F5E700BF2007002024070020508D020048
:104C60006D4F0100F48C02002DE9F04182B0044642
:104C7000884615461E46282000F010FA074640B127
:104C80000190089B009333462A4641462046FFF791
:104C9000A3FF384602B0BDE8F0810000F0B585B052
:104CA0000C4615461E46074698B1154B186828B3A2
:104CB000009401950297052C19DCFFF7E3FC02280C
:104CC0000DD000231A4669460D480068FEF74AFCDD
:104CD00012E00C4940F2831000F00CFEE5E70023DF
:104CE0000A9A694606480068FEF73CFC04E0002387
:104CF00032466946FEF706FD05B0F0BD0020FBE731
:104D000020070020F48C020070B582B0194B1B689C
:104D10001A683AB3DB681E68DC68251D2846FEF772
:104D20005DF9636A20469847E369012BEED1A369D8
:104D300033449E4207D26360246129460D4B1868B4
:104D4000FEF733F9E2E7002100910B463246204698
:104D5000FFF7A4FF0028D9D1074940F26F3000F0D7
:104D6000C9FDD3E7054A106802490860136002B024
:104D700070BD00BFEC060020F48C0200F00600209D
:104D800038B50546FFF7CAF90446074B1B6883424E
:104D900005D800232B60044B1C60204638BDFFF76C
:104DA000B3FF01232B60F6E71C07002070B582B02B
:104DB00006460D4613490968C968CC68201DFEF7F0
:104DC0000DF9E169012904D0636A2046984702B0D1
:104DD00070BDA16933462A4631442046FFF7AAFE3A
:104DE0000028F1D0002100910B4632462046FFF703
:104DF00055FF0028E8D1044940F2E51000F07AFDA3
:104E0000E2E700BFEC060020F48C020070B582B02F
:104E100006460C46FFF77AF901A8FFF7B1FF019BA0
:104E200023BB05460CB9B04219D22CB1114B1B68FB
:104E30001C68B4FA84F464092246711B0E4B18688E
:104E4000FEF7FEFEFFF7F8F990B90C4B4FF08052D9
:104E50005A6040BFBFF34F8FBFF36F8F08E0FFF77B
:104E6000EBF929463046FFF7A1FF01E0FFF7E4F92F
:104E700002B070BDF00600202007002000ED00E029
:104E800030B589B002E0049B002B0FDA002204A9A0
:104E9000344B1868FEF7E0FC002860D0049B002B20
:104EA000F1DA07990698059B9847ECE7069C636939
:104EB00013B1201DFEF792F803A8FFF761FF054626
:104EC000049B092BE2D801A252F823F0F54E010011
:104ED000F54E0100F54E01008D4E0100354F0100E9
:104EE000574F0100F54E0100F54E01008D4E0100B7
:104EF000354F0100059BA169024619442046FFF782
:104F000019FE0028C2D0636A20469847E369012B46
:104F1000BCD1A269002100910B46059802442046AD
:104F2000FFF7BCFE0028B1D10F4940F2FE2000F08F
:104F3000E1FCABE7059BA3613BB1A1692B462A4687
:104F400029442046FFF7F6FDA0E7074940F2153057
:104F500000F0D0FCF1E7204600F016F996E709B022
:104F600030BD00BF20070020F48C020000B583B0E4
:104F700001A8FFF7CFFD0199FFF748FFFFF780FF7A
:104F8000F6E7000010B5044648B1FEF71BF9646966
:104F9000003C18BF0124FEF733F9204610BD034939
:104FA00040F2B73000F0A6FCEFE700BFF48C02003F
:104FB00010B5044630B1FEF705F9246AFEF720F972
:104FC000204610BD02494FF4737000F093FCF2E7E5
:104FD000F48C0200124A12F0070F1ED0D11D21F0EE
:104FE0000701C1F5004313440A460E480260002140
:104FF00041601344083B23F007030B4803605960EA
:105000001960991A51601360084B1960084B1960B8
:10501000084B4FF000421A6070474FF40043E4E73A
:105020002C07002038870020280700203487002024
:10503000308700202C870020164B1A461B688342BD
:10504000FBD3516802EB010C844509D0416800EBA9
:10505000010C634509D00360904219D0106070477D
:105060004068014451601046F0E710B40A4C2468CF
:10507000A3420BD05B681944416013681B6803604E
:10508000904200D010605DF8044B70470460F7E771
:10509000704700BF3887002028070020F8B5054674
:1050A000FFF734F8324B1B68A3B1324B1B681D422B
:1050B0004FD135B1083515F0070F02D025F007059F
:1050C0000835002D47D02C4B1B68AB4245D32B4AEB
:1050D000146804E0FFF77EFFE7E722461C4663689A
:1050E000AB4202D22368002BF7D1214B1B68A342AD
:1050F00035D0166808362368136063685B1B102B75
:105100000AD9671917F0070F1ED163685B1B7B6014
:1051100065603846FFF790FF626817490B689B1A75
:105120000B60174909688B4201D215490B60114B7E
:105130001B681343636000232360FFF77DF816F0BC
:10514000070F0ED13046F8BD0E49C32000F0D2FB48
:10515000DBE70026F1E70026EFE70026EDE7002673
:10516000EBE7084940F2031000F0C4FBEAE700BF98
:10517000280700202C870020308700203887002057
:1051800034870020588D020098B338B50446A0F14A
:10519000080550F8042C174B1B681A4211D054F81C
:1051A000083C23B114494FF48C7000F0A3FB54F871
:1051B000043C104A1268134202D054F8081C31B162
:1051C00038BD0D4940F2171000F094FBE7E723EAE1
:1051D000020344F8043CFEF799FF54F8041C074A04
:1051E00013680B4413602846FFF726FFFFF724F8E7
:1051F000E6E770472C870020588D0200308700209A
:105200004308054AD35C10F0010F01D0180970471C
:1052100003F00F00704700BF7087002010B410F03B
:1052200001030DD00F220BB10B01D9B24008054C80
:10523000235C134023540B4323545DF8044B704705
:10524000F022F0E77087002008B50146002300E057
:105250000133094A12789A4208DD084A126802EBC3
:10526000C30012F833208A42F2D104E004498820B6
:1052700000F040FB002008BD408700209087002000
:10528000C48D020038B504460D46FFF7DDFF20B19E
:10529000436813B129462046984738BD08B5044BEA
:1052A000196800224908034800F038FA08BD00BF19
:1052B000448700204887002010B5C0B2FFF7C4FF24
:1052C0000446007804F098FB6378012B14BF002398
:1052D0000123834200D010BD034B1A685B6813435F
:1052E000F9D1FFF7DBFFF6E76887002038B5044601
:1052F0000D46FFF785FF042828D8DFE800F00321DA
:1053000028373E0015B301212046FFF787FF002014
:1053100000F0B4FA0122A4F12003C4F1200102FA42
:1053200003F322FA01F10B43A24028490C684868B4
:10533000224303430A604B60002000F0AFFA05E00F
:1053400005B1022529462046FFF768FF38BD45B163
:1053500003212046FFF762FF01212046FFF792FF5D
:10536000F4E701212046FFF759FFEFE7002DEDD1CB
:1053700004212046FFF752FFE8E725B1032120462C
:10538000FFF74CFFE2E700212046FFF747FF00212F
:105390002046FFF777FF002000F070FA0122A4F109
:1053A0002003C4F1200102FA03F322FA01F10B43B6
:1053B000A24006490C68486824EA020220EA030376
:1053C0000A604B60002000F069FABFE768870020A0
:1053D00070B5002415E0114B1D6805EBC40615F8E7
:1053E000340004F009FB7378012B14BF0023012360
:1053F000834214BF0021012115F83400FFF776FF26
:105400000134074B1B78A342E5DC064B1A685B6846
:10541000134300D170BDFFF741FFFBE790870020E9
:105420004087002068870020092A4DD970B582B0D6
:1054300006460D46144604F0A1F920B904F060F9BF
:10544000034600283DD1224B1E60224B1D70224B8B
:105450001C6020220021214812F0F1FB204B00208B
:105460000021C3E900016C1EE4B225B306EBC402BF
:1054700003238DF8043000238DF805309DF80610C5
:1054800063F300018DF80610C9B263F341018DF892
:105490000610C9B263F382018DF8061093788DF877
:1054A0000530104A01A916F8340004F071F90346DA
:1054B00038B92546D7E70C4A00210C4800F0FEF821
:1054C0000346184602B070BD07231846704700BF58
:1054D00090870020408700204487002070870020AC
:1054E00068870020B9520100D1530100348E0200B8
:1054F00010B50C4B1B680BB100240DE00A4940F2BB
:10550000351000F0F7F9F7E7064B1B68012113F897
:10551000340004F0D7F90134044B1B78A342F3D8CC
:10552000002010BD90870020C48D0200408700201D
:1055300082B001238DF807309DF80730134B1860B7
:1055400059609A6044F20103984213D044F2020376
:10555000984207D10D4BDA60DA6812889A61DA68EE
:105560005268DA6172B69DF80730002BFBD162B643
:1055700002B07047054B1A611A6992685A611A693C
:1055800012689A611A695268DA61EBE79487002021
:1055900000B583B002900091019244F2010071467F
:1055A0006A4600F003F803B000BD00002DE9F041A9
:1055B00084B004460E46154672B6FDF7D7FAFCF7DE
:1055C000A5FE0028FBD144F201039C421ED044F208
:1055D00002039C4236D12148214BC01AC008000466
:1055E0002B886A681F4940F00100FDF7E3F81E4B65
:1055F000D3F8F03013F0010F00D000BE2A46314638
:105600002046FFF795FF04B0BDE8F081134F144B1F
:10561000FF1AFF083F0447F00107D5F8088040460D
:1056200000F014FB03466A68296802960191009213
:1056300042460E493846FDF7F7F90D493846FCF762
:105640009BFFD4E70548064BC01AC0080004324649
:10565000084940F00100FDF715F8C8E72C8A020060
:10566000BC890200388E020000ED00E0548E02007A
:105670007C8E0200908E020038B50546FFF798FC3C
:1056800004464368AB4203D00A496A2000F032F96D
:10569000A3684BB1237B33B1637B83F00103237396
:1056A000A3682068984738BD02496B2000F022F9B2
:1056B000F0E700BFA88E02000020704730B583B02D
:1056C0000468FAB100B3237B03BB636813B10820FD
:1056D00003B030BD23606360A360E360994208BFFC
:1056E00001236373A2600B4B0093234614BF012276
:1056F00000224FF47A710848FFF7B6FA606038B1BB
:105700000020E5E70720E3E70720E1E70820DFE7DF
:105710000E20DDE77956010038AB0200F0B585B008
:105720004668002E4DD004460F46037B002B4AD11D
:105730000260EFF3058535B30393009303AB0A468C
:1057400009213046FFF7AAFA012801D004253BE0E1
:10575000FEF7EAFC02460023009303AB0621304625
:10576000FFF79CFA0128F1D1039B43B1184B4FF08E
:1057700080525A6040BFBFF34F8FBFF36F8F01233A
:105780002373002520E03046FFF7FCFBE0B902233D
:10579000009300233A4604213046FFF77FFA0128A0
:1057A00001D0042510E0FEF7B9FC02460223009365
:1057B000002301213046FFF771FA0128DFD00425CC
:1057C00002E0082500E00025284605B0F0BD00BF36
:1057D00000ED00E010B584B00446406830B3EFF34C
:1057E0000583B3B100220392009203AB0821FFF7B7
:1057F00055FA01280BD1039BA3B10E4B4FF08052F9
:105800005A6040BFBFF34F8FBFF36F8F0AE0042091
:105810000AE00223009300231A460321FFF73EFA11
:10582000012805D10020207304B010BD0820FBE73B
:105830000420F9E700ED00E072B6024A1368013374
:1058400013607047B4870020034A1368013B13605C
:1058500003B962B6704700BFB4870020EFF3058339
:10586000C3F308033BB9EFF3148313F0010F0CBF2C
:1058700001200020704701207047000008B5FFF7A5
:10588000EDFF012802D1FFF7D7FF08BD02494320F1
:1058900000F030F8F7E700BF108F020008B5FFF7FF
:1058A000DDFF012802D1FFF7CFFF08BD02495120DB
:1058B00000F020F8F7E700BF108F0200EFF3058338
:1058C000C3F308030BB90F207047103B5BB2002BEA
:1058D00008DB03F1604303F5614393F800034009DB
:1058E000C0B2704703F00F03014AD05C4009F7E7EC
:1058F00014ED00E000B583B0ADF8000001916A46F8
:10590000002144F20200FFF751FE03B05DF804FBF2
:10591000034653E8000F0A4643E8002C9CF0000FB2
:10592000F7D17047034653E8002F42EA010043E8ED
:10593000000C9CF0000FF6D17047034653E8000FAF
:1059400000EA010243E8002C9CF0000FF6D17047FA
:10595000034653E8002F02EB010043E8000C9CF0E3
:10596000000FF6D17047034653E8002FA2EB010069
:1059700043E8000C9CF0000FF6D1704708B50121F8
:10598000FFF7D0FF08BD08B50021FFF7D6FF08BD1F
:1059900038B50C46054620B1EB68288A00FB043078
:1059A00038BD0249E820FFF7A5FFF5E7788F020030
:1059B00038B50C46054630B1E868241A288AB4FB8D
:1059C000F0F0C0B238BD0249F520FFF793FFF3E7CE
:1059D000788F020038B50446C8B10020FFF74EFFAB
:1059E0002268136861688B4217D9591E116013F839
:1059F000011C2046FFF7CCFF0546A368226811680A
:105A00005B1ADBB21179994208D2137106E006499C
:105A10004FF49270FFF76EFFDFE700250020FFF7DD
:105A20003DFF284638BD00BF788F020070B50C4698
:105A3000064680B1ACB10020FFF720FF33681D6837
:105A40006A1C1A6021463046FFF7B2FF287000201A
:105A5000FFF724FF70BD064940F24710FFF74AFFE9
:105A6000E8E703494FF4A470FFF744FFE3E700BF02
:105A7000788F02002DE9F04F83B0884601929B4653
:105A80009DF830900446D0B1B4F806A0637903FBCA
:105A90000AFAAAF1040ADA4516D9E7880BF10403D9
:105AA000B3FBF7F607FB1633019A156805EB0B02FB
:105AB000524501D9AAEB0B05019A15600BE0194973
:105AC000B620FFF717FFDFE71649C420FFF712FFE4
:105AD000E3E72468013E002EFBD1A7EB030AAA45A9
:105AE00028BFAA46B3460DE052460146184612F0BA
:105AF0007DF82468A5EB0A05D344BA46AF4228BF17
:105B0000AA4633465DB108EB0B0023440433B9F1D8
:105B1000000FE9D05246194612F068F8E9E703B0E1
:105B2000BDE8F08FDC8F0200F8B501464679701EA3
:105B30000A46002301E0126801338342FBD3176851
:105B4000002405E00D683846FFF770FF0134294650
:105B5000A642F7D8F8BD2DE9F8430746048AA4F118
:105B6000040841440331B1FBF8F8FFF733FF064660
:105B7000F8B10025057101234371043CC4805FFA2C
:105B800088F808F1FF3807608146454511D238464C
:105B9000FFF720FF044640B1737901337371C9F8F0
:105BA0000000076001358146EFE73046FFF7BCFF94
:105BB00026463046BDE8F88308B501210430FFF7DA
:105BC000C7FE08BD10B5044601210430FFF7CBFE27
:105BD00010F0FF0F00D010BD2046FFF7A5FFFAE739
:105BE00010B584B0144603920022009203AAFFF776
:105BF00041FF039BA34201D104B010BD0249F6202E
:105C0000FFF778FEF8E700BFDC8F02000E4A02F5CE
:105C10008C718A4215D2A1EB020C4FEADC7303EBC4
:105C2000EC035B1002EBC30C52F83330834201D912
:105C30006146EEE702D20CF10802EAE7DCF8040064
:105C400070470020704700BF1494020008B5FFF7AA
:105C5000DDFF00B108BD0148FCE700BF0094020071
:105C600000B583B00378012B06D0022B4ED0002B59
:105C700066D003B05DF804FB037A83B93F4B1B7811
:105C80003F4AD35C2BB101223E493F4808F08EFFCA
:105C9000EFE701223B493D4808F030FCE9E7436863
:105CA00019783B4800F07FF990B101228DF800206F
:105CB0000190384B1B6868469847354A9168D3680D
:105CC0005B1A92889A4210D2334B01221A70D0E7A5
:105CD0002F4B9A68DB689A42EFD000238DF8003092
:105CE0002C4B1B6868469847E7E7244B1B78244AEF
:105CF000D35C2BB101222349234808F057FFB8E7B2
:105D000001222049214808F0F9FBB2E702238DF86F
:105D10000030C3680193194B1B78194AD35C4BB10F
:105D200001221849184808F041FF1A4B1B686846C1
:105D300098479EE701221349144808F0DFFBF4E777
:105D40001649174800F043F938B103238DF80030A5
:105D5000104B1B68684698478BE7084B1B78084A2E
:105D6000D35C2BB101220D49074808F0A1FE80E762
:105D700001220A49054808F059FB7AE70000002093
:105D80007C8D0020E0870020040000200C00002013
:105D9000BC870020B8870020CC870020E487002043
:105DA000D0870020F0B589B01E462E4B1A6000291E
:105DB00056D004460D468A8809682B4800F0E0F862
:105DC000034610B1184609B0F0BDAA89A968274852
:105DD00000F0D6F803460028F4D16D46244F0FCFCB
:105DE0000FC597E80F0085E80F0063690693237CD1
:105DF000003B18BF01238DF814308DF81C60637CC4
:105E00002BB30E238DF81530E3680293A368039338
:105E10002368019363680093164A6946164808F0A0
:105E200043F803460028CDD1144A0021117022689E
:105E3000B2F1FF3FC6D0104B1B78114AD35C43B17F
:105E400001221049104808F0B1FE0346BAE70023CA
:105E5000D8E701220B490D4808F050FB0346B1E793
:105E60000723AFE7B8870020BC870020D087002039
:105E700090950200615C010000000020CC870020AA
:105E80007C8D0020E0870020040000200C00002012
:105E900038B5044648B1144B1D782146134800F02C
:105EA00096F8044635B9204638BD1149CA20FFF797
:105EB00021FDF0E70C4B00221A700E4B1B780E4AA6
:105EC000D35C5BB101220D490D4808F06FFE00283C
:105ED000E9D0074AD621FFF75BFBE4E70122074937
:105EE000084808F00BFBF2E7CC870020BC870020B5
:105EF0002C950200000000207C8D0020E08700200F
:105F0000040000200C00002010B50146164800F0E7
:105F10004AF8044608B1204610BD144B1B78144AB9
:105F2000D35CB3B1134808F0B5FD0028F3D1124992
:105F30000D4800F04CF80028EDD10C4B1B780C4AB2
:105F4000D35C53B101220C490A4808F0B1FD044664
:105F5000E1E70A4808F05EFAE7E701220649074848
:105F600008F064FA0446D6E7D0870020000000203D
:105F70007C8D002004000020E48700200C0000201D
:105F80000B4651B15AB1511E0A420AD103608180B9
:105F900000238360C360184670470E2070470920B5
:105FA0007047092070478268C3689B1A82889A42AA
:105FB00001D20420704710B40368C4682240995489
:105FC000C3680133C36000205DF8044B70478268EA
:105FD000C3689A420CD002688368B0F804C003EA30
:105FE0000C03D35C0B70836801338360002070471F
:105FF0000520704710B510F0800F07D100F00F0496
:10600000082C11D80B4800EBC40010BD00F00F04A1
:10601000082C03D8084800EBC400F6E707494FF402
:10602000CC70FFF767FCF5E704494FF4CF70FFF73A
:1060300061FCE7E73C880020F4870020B09502006F
:1060400070B506460C46FFF7D5FF054604601CB147
:1060500063681B68436070BD0EB1802E04D1044993
:106060004FF4E170FFF746FC00236B60F3E700BFDD
:10607000B095020008B50378052B03D0084B1B68C8
:10608000984708BD074AD2F88434DBB2D2F880249E
:1060900012F0FF0FF2D1052BF0D10348EEE700BF5D
:1060A000E887002000700240F496020008B520B98D
:1060B000054B1B680548984708BD054940F27B2001
:1060C000FFF718FCF4E700BFE8870020F89602000D
:1060D000B095020008B501280DD0022810D028B1D3
:1060E0000A4940F26220FFF705FC03E0084B1B68F9
:1060F0000848984708BD064B1B6807489847F9E7CA
:10610000034B1B6805489847F4E700BFB0950200B1
:10611000E8870020F0960200EC960200E896020064
:106120002DE9F04F87B00446884691469A460026EE
:10613000049600E0013663685D6801230022214671
:1061400004A8A8470028F5D100258DF80F50019527
:106150002F461DE09DF80F30109A1360524602F84A
:10616000023B8AF8018061684D68023B214601A824
:10617000A84700202AE06368D3F804B09DF80F30E8
:10618000023B0022214601A8D8479DF80F301D444C
:10619000AE421AD96368D3F804B001230DF10F029F
:1061A000214601A8D8476368D3F804B001230DF154
:1061B0000302214601A8D8479DF803004045DAD1E3
:1061C0004F45C7D00137FFB2D5E7052007B0BDE87E
:1061D000F08F0000F0B583B0044603F0ADF838B19D
:1061E000444806F0C7F8054640B1284603B0F0BD64
:1061F000414940F23130FFF77DFBF1E700253F4B8D
:106200001D703F4B1D603F4B1D604826324629469E
:106210003D4811F014FD324629463C4811F00FFD6F
:10622000E4B13B4B94E8070083E80700384B1B6858
:10623000D3B1002007F0C0FC08B1852818D1002791
:106240003C460137FFB2334B1B7A9C422FD204EB02
:106250004404314B1C4464B300261CE02C4B2F4AF1
:106260001A605D601D72E1E7294B2C4A1A60E0E775
:10627000214A40F25F31FFF78BF9E0E763789E42F5
:1062800013D2A37833442344002BD9D02149187862
:10629000FFF7D6FE2E46731CDDB2002CEED120494E
:1062A00040F24310FFF726FBE8E70023ECE7002469
:1062B000D1E70B238DF80430164B5B6873B1154B97
:1062C0005B681B6883B1134843681B6801A9984742
:1062D0000546002889D005F015FE86E706494FF4EB
:1062E0008870FFF707FBEAE7034940F21110FFF758
:1062F00001FBE8E775600100B09502008D88002081
:106300008488002088880020F48700203C880020B2
:10631000E8870020849702008D970200D969010068
:106320001096020008B505F065FF68B105F06AFF38
:1063300050B9064807F05AFC38B1054A40F2C2315C
:10634000FFF726F9002000E0082008BDE4960200CF
:10635000B095020008B505F0EDFD08BD08B505F0E3
:106360005BFF10B907F0B2FA08BD034940F2D13023
:10637000FFF7C0FAF6E700BFB095020008B505F0D8
:1063800041FF70B14FF08043D3F8383413F0020F5F
:106390000DD14FF08043D3F8383413F0010FF1D111
:1063A00009E005494FF47670FFF7A4FAEAE7034BDA
:1063B0001B680348984708BDB0950200E887002095
:1063C0000C97020000B583B082238DF80430034B94
:1063D0001B6801A8984703B05DF804FBE88700201C
:1063E0002DE9F04383B0064650B3736873B3736806
:1063F0001B688BB333681B6823B1614940F26E5050
:10640000FFF778FA05F0FEFE10B905F0F3FE20B9AB
:106410005B4940F27250FFF76DFA002404F1010865
:106420005FFA88F8002E39D0337A9C423CD206F1CC
:10643000090504EB44042544002D37D000241EE058
:106440004F4940F26B50FFF755FACEE74C4940F206
:106450006C50FFF74FFACAE7494940F26D50FFF719
:1064600049FAC7E76B789F4214D2AB783B442B4480
:1064700093B11878FFF7BEFD0368002B7CD1274647
:106480000134E4B2002DEDD13E4940F24310FFF754
:1064900031FAE7E70023EBE74446BFE739494FF419
:1064A0008870FFF727FABFE70025C5E74FF000081F
:1064B000474608F101085FFA88F82EB3337A9F4205
:1064C00028D206F1090407EB47073C4424B34FF0F8
:1064D00000090CE06378994514D2A3784B44234417
:1064E000002BE5D031461878FFF7AAFDB94609F12F
:1064F0000107FFB2002CEDD1224940F24310FFF713
:10650000F9F9E7E72B46EBE71E494FF48870FFF7F0
:10651000F1F9D3E72C46D9E71B4C01E023681C684E
:1065200023683BB1B342F9D115494FF4B360FFF78B
:10653000E1F9F3E726600B238DF8043056B1736858
:1065400073B173681B688BB173681B6801A930460F
:10655000984712E00A4940F20F10FFF7CBF9EEE737
:1065600007494FF48870FFF7C5F9EAE7044940F29C
:106570001110FFF7BFF9E7E7112003B0BDE8F08382
:10658000B09502001096020084880020024B187813
:10659000003818BF012070478C88002010B50446D1
:1065A00010F0080F03D0204607F042FA10BD06F0A5
:1065B00075FD204607F0D2FAF5E708B507F0E2F9D5
:1065C00008BD0000014B1868704700BF8488002098
:1065D000014B1868704700BF888800202DE9F04102
:1065E00006468846FFF7EEFF054605B32F7A0024DE
:1065F0000CE02B7A9C4213D205F1090304EB440210
:1066000013441B78B3420DD00134E4B2BC4211D222
:10661000002DEED10C494FF48870FFF76BF9E8E7D5
:106620000023EEE7B8F1000F01D088F800402846BB
:10663000BDE8F08115B12B681D68D6E7034940F22B
:106640004320FFF757F9F6E710960200789602000C
:1066500038B51546044650B1636873B163681B686A
:106660008BB163681B6829462046984738BD0949A5
:1066700040F20F10FFF73EF9EEE706494FF488703D
:10668000FFF738F9EAE7034940F21110FFF732F952
:10669000E7E700BFB095020038B500F00F03082B04
:1066A00001D9102038BD0D46FFF7A4FC0468ECB1F9
:1066B00054B1636873B163681B688BB163681B680E
:1066C000294620469847EDE7094940F20F10FFF7A9
:1066D00011F9EEE706494FF48870FFF70BF9EAE786
:1066E000034940F21110FFF705F9E7E71020D9E759
:1066F000B095020038B50546FFF764FF044613E085
:10670000154940F20F10FFF7F5F810E012494FF469
:106710008870FFF7EFF80DE00F4940F21110FFF716
:10672000E9F80BE023681C68ACB1002CE8D0636882
:10673000002BEBD063681B68002BEDD063681B68EF
:10674000294620469847002CECD1044940F24320CA
:10675000FFF7D0F8E6E738BDB09502007896020062
:1067600070B50646FFF72EFF0446062513E01849CC
:1067700040F20F10FFF7BEF810E015494FF4887093
:10678000FFF7B8F80DE0124940F21110FFF7B2F828
:106790000BE023681C68C4B1002CE8D06368002BB0
:1067A000EBD063681B68002BEDD063681B68314633
:1067B000204698470546062807D1002CE9D105490F
:1067C00040F24320FFF796F8E3E7284670BD00BF8C
:1067D000B09502007896020038B504460D4605F0E3
:1067E00053FE50B1064B1B78022B01D0082038BD58
:1067F0002946204605F076FEF9E70820F7E700BFB6
:106800008D88002038B504460D4605F03DFE50B198
:10681000064B1B78022B01D0082038BD29462046A4
:1068200005F01EFFF9E70820F7E700BF8D8800207C
:1068300070B506460D46144643689B681BB19847E1
:10684000062800D070BD337A9D420AD884BB76B149
:10685000337A9D4211D2093605EB450535446E78F1
:1068600018E0144940F2F920FFF744F8EEE7124926
:106870004FF48870FFF73EF8EAE70025EFE76B7802
:106880009C4211D2AB7823442B441878FFF786FE44
:106890000134E4B2A64209D9002DF0D1064940F2F4
:1068A0004310FFF727F8EAE70023EEE70020C9E7E7
:1068B0000720C7E7B09502001096020070B50446A5
:1068C0000D464368DB6803B19847237A9D420AD896
:1068D0007CB1237A9D4212D2093405EB450525444B
:1068E0006E78002418E013494FF44670FFF702F861
:1068F000EEE711494FF48870FEF7FCFFE9E7002549
:10690000EEE76B789C4211D2AB7823442B44187885
:10691000FFF753FE0134E4B2A64209D9002DF0D1AD
:10692000054940F24310FEF7E5FFEAE70023EEE7F2
:1069300070BD00BFB09502001096020008B5436814
:106940001B690BB1984708BD0020FCE770B5FFF745
:1069500039FE054613E00134E4B2B4420CD2002201
:1069600021462846FFF764FF0028F4D0094940F289
:106970006B70FEF7BFFFEEE72DB12B681D6845B1C8
:106980002E7A0024E9E7044940F24320FEF7B2FFE3
:10699000F3E770BDB09502007896020070B5FFF77E
:1069A00011FE05460AE021462846FFF787FF01341D
:1069B000E4B2B442F7D32DB12B681D6845B12E7AED
:1069C0000024F6E7034940F24320FEF793FFF3E784
:1069D00070BD00BF7896020038B504467A4B1B683C
:1069E000002B00F09180FEF769FF062840F29280AC
:1069F0002378852B00F20C84DFE813F02202620278
:106A000083039702F202BC03C8030A04EF03F803EE
:106A100001040A040A040A040A04B3030A040A0467
:106A20000A040A040A040A040A040A040A040A04F6
:106A30000A040A040A040A040A040A040A040A04E6
:106A40000A040A040A040A040A040A040A040A04D6
:106A50000A040A040A040A040A040A040A040A04C6
:106A60000A040A040A040A040A040A040A040A04B6
:106A70000A040A040A040A040A040A040A040A04A6
:106A80000A040A040A040A040A040A040A040A0496
:106A90000A040A040A040A040A040A040A040A0486
:106AA0000A040A040A040A040A040A040A040A0476
:106AB0000A040A040A040A040A040A040A040A0466
:106AC0000A040A040A040A040A040A040A040A0456
:106AD0000A040A040A040A040A040A040A040A0446
:106AE0000A040A040A040A040A040A040A040A0436
:106AF0000A040A040A040A040A040A042A01920085
:106B0000D4009E01C801C203304940F22540FEF77F
:106B1000F1FE68E72D4940F22D40FEF7EBFE67E7F6
:106B20002B4B5A682B4C2146186890472046FFF79C
:106B3000E1FD294B5B680BB10D209847FFF72EFF55
:106B400000F052FC254B1B686BB1012005F008FBDF
:106B5000234B1B78023B062B0CD8DFE803F00D0B10
:106B60000B0D0D0D0D001C4B1B7A0BB10120EDE739
:106B70000020EBE7002300E001230BB102F080FCD2
:106B8000174B1B78022B09D0082B09D101230BB11D
:106B900005F08CFB124B01221A7038BD0123F6E779
:106BA0000023F4E7FFF7FAFE06F060FE0C4B1B78BB
:106BB000023B062B05D8DFE803F015040415151574
:106BC000150000230FE000BF84880020B09502006C
:106BD0003C88002008970200E88700208888002071
:106BE0008D88002001230BB102F04AFC7B4B1B78FF
:106BF000022B21D0082B21D101230BB105F056FB2C
:106C0000764B00221A70764C2046FFF773FD754BC9
:106C10005A68214618689047734B5B680BB10E2089
:106C200098476E4B1B78023B062B09D8DFE803F030
:106C30000A08080A0A0A0A000123DEE70023DCE743
:106C4000002300E00123002BA7D002F019FCA4E7E9
:106C5000624B1B78062B27D0072B49D0052B9CD1E4
:106C60005E4B1B78023B062B05D8DFE803F00604D9
:106C7000040606060600002300E0012313B95B4862
:106C800002F0BCFB554B1B78022B09D0082B09D115
:106C900001230BB905F014FB504B02221A707CE75C
:106CA0000123F6E70023F4E74C4B1B78023B062B4D
:106CB00005D8DFE803F006040406060606000023F4
:106CC00000E0012313B9494802F098FB434B1B78BD
:106CD000022B09D0082B09D101230BB905F0F0FADA
:106CE0003E4B08221A7058E70123F6E70023F4E729
:106CF0003A4B1B78023B062B05D8DFE803F006046D
:106D0000040606060600002300E0012313B93748F5
:106D100002F074FB314B1B78022B09D0082B09D1F0
:106D200001230BB905F0CCFA2C4B02221A7034E780
:106D30000123F6E70023F4E7284B1B78032B7FF4AD
:106D40002CAF06F0F5FD044600283FF426AF234B98
:106D50001B78023B062B05D8DFE803F00604040687
:106D600006060600002300E003460BB102F088FB94
:106D70001A4B1B78022B02D0082B00D000240CB138
:106D800005F094FA154B04221A7006E7134B1B7892
:106D9000032B10D005F052FA044600283FF4FDAE54
:106DA0000E4B1B78023B062B34D8DFE803F035335B
:106DB00033353535350006F0BBFD04460028E9D0F3
:106DC000064B1B78023B062B05D8DFE803F01104C5
:106DD00004111111110000230BE000BF8D88002069
:106DE000049702003C880020E8870020140000205F
:106DF00003460BB102F044FB894B1B78022B02D0F7
:106E0000082B00D000240CB105F050FA844B04226A
:106E10001A70BFE7002300E00346012B02D081482F
:106E200002F0ECFA7E4B1B78022B02D0082B00D02C
:106E300000240CB105F03AFA794B06221A70ACE640
:106E4000774B1B78032B0AD0082B08D0764B5B6856
:106E50000BB100209847FFF7BBFB054617E07348CE
:106E6000FFF7BAFDF2E7724940F20F10FEF742FD5C
:106E700012E06F494FF48870FEF73CFD0FE06C495B
:106E800040F21110FEF736FD0DE02B685D68002D15
:106E90003FF483AE002DE6D06B68002BE9D06B6821
:106EA0001B68002BEBD06B681B682146284698476F
:106EB000002DEAD15F4940F25F20FEF71BFDE4E7B9
:106EC000FFF76CFD00F088FA554B1B78023B062B50
:106ED00005D8DFE803F006040406060606000023D2
:106EE00000E0012313B94F4802F088FA4C4B1B789D
:106EF000022B16D0082B16D101230BB905F0E0F9AF
:106F0000474B02221A70484B5B680BB1012098472F
:106F1000494B5A682146186890472046FFF7EAFB1C
:106F20003BE60123E9E70023E7E73D4B1B78082B0D
:106F30000AD03B4B1B78023B062B2BD8DFE803F033
:106F40002C2A2A2C2C2C2C00354B1B78023B062B90
:106F500005D8DFE803F00604040606060600002351
:106F600000E0012313B92F4802F048FA2C4B1B789C
:106F7000022B0BD0082B0BD101230BB905F0A0F984
:106F8000274B02221A7005F0A5F917E00123F4E758
:106F90000023F2E7002300E0012313B9214802F0A7
:106FA0002DFA1F4B1B78022B16D0082B16D101236C
:106FB0000BB105F07BF91A4B05221A701A4B5B686E
:106FC0000BB1032098471C4B5A682146186890471C
:106FD0002046FFF78FFBE0E50123E9E70023E7E721
:106FE000114B5B680BB103209847134B5A68134C45
:106FF0002146186890472046FFF77CFB084B1B781A
:10700000062B1DD0082B3FD0054B1B78023B062BCF
:107010005ED8DFE803F05F5D5D5F5F5F5F0000BF2C
:107020008D88002014000020E887002000970200CF
:10703000B0950200789602003C880020FC96020081
:10704000764B1B78023B062B05D8DFE803F00604DD
:10705000040606060600002300E0012313B9704869
:1070600002F0CCF96D4B1B78022B09D0082B09D10B
:1070700001230BB105F01AF9684B07221A708CE551
:107080000123F6E70023F4E7644B1B78023B062B51
:1070900005D8DFE803F00604040606060600002310
:1070A00000E0012313B95E4802F0A8F95B4B1B789E
:1070B000022B09D0082B09D101230BB905F000F9E7
:1070C000564B02221A7068E50123F6E70023F4E725
:1070D000002300E0012313B9514802F08FF94F4B10
:1070E0001B78022B09D0082B09D101230BB905F01D
:1070F000E7F84A4B02221A704FE50123F6E7002316
:10710000F4E7464B1B78023B062B05D8DFE803F07B
:107110000604040606060600002300E001230BB166
:1071200002F0AEF93D4B1B78022B16D0082B16D17E
:1071300001230BB105F0BAF8384B03221A70394B12
:107140005B680BB1022098472046FFF7D3FA364B15
:107150005A682146186890471FE50123E9E7002394
:10716000E7E7304B5B680BB10F2098472046FFF7ED
:10717000C1FA12E52C4B5A682146186890470CE575
:10718000294B5A6821461868904706E5A078FEF713
:1071900031FF05460368A3B16B68C3B16B68214634
:1071A0002868984700283FF4F8ACA07810F00F0F3B
:1071B0003FF4F3AC10F0080F7FF4EFAC05F006FFDE
:1071C000EBE41A4940F20350FEF794FBE4E7174959
:1071D00040F20450FEF78EFBE0E7124B5B680BB108
:1071E000082098472046FFF785FAD6E40D4B5B68E8
:1071F0000BB1092098472046FFF77CFACDE4094BF4
:107200005B680BB10A2098472046FFF773FAC4E485
:10721000064940F22750FEF76DFBBEE48D88002042
:1072200014000020E88700203C880020B095020070
:107230000020704708B5084B1B7883420BD0064BE3
:107240001870052804D0054A137823F00203137040
:107250000348FFF7C1FB08BD9C880020B8880020C8
:107260009497020008B50E4B1B78043BDBB2012B50
:1072700013D8CB781BB1012B08D007200EE0FFF705
:107280008DFB0420FFF7D6FF002007E0FFF75EFB31
:107290000520FFF7CFFF002000E0082008BD00BF59
:1072A0009C8800202DE9F04F85B001900C46934654
:1072B0004B687BB1BBF1400F20D805F043FA804604
:1072C000E6685E4528BF5E464FF000094F464FF026
:1072D000010A51E00D685DB12B681B68002BE9D1F4
:1072E000A368002BE6D1019A136053609A462EE002
:1072F000374940F24320FEF7FDFAEDE7354940F209
:107300009710FEF7F7FAD8E7002B46D0204650F842
:10731000101B4B68D3F804902B4608EB0702C847B4
:107320004FF0010939E025681DB12B681B68236007
:107330003FE0274940F24320FEF7DCFAF5E76360BF
:107340000FB1BB4541D8019BC3F800805F60504638
:1073500005B0BDE8F08FA3680133A36021684B68D6
:107360005D680123002202A8A8470028F3D100236A
:10737000236101E04FF0000A002EE4D0A3681D460F
:10738000B34228BF354661680029BDD02A4608EBC4
:10739000070010F02BFC00236360A3685B1BA36055
:1073A000E268521BE260761B2F4413B9B9F1000F5B
:1073B000B9D1E368002BDDD0A368002BDCD12368B2
:1073C000002BBCD000230293C8E74FF0000ABAE7B5
:1073D000789602001097020008B50020FFF7DEF84B
:1073E0008020FFF7DBF808BD08B50020FFF7E5F8BF
:1073F0008020FFF7E2F808BD38B505460C4605F0D9
:1074000021FFA84206D1044B94E8030083E803005F
:10741000002038BD1020FCE7BC88002070B584B087
:107420000D46C3881E46934228BF1646934212D883
:1074300000230195029603930020FEF71FFA01A98D
:107440008020FFF7C9F9044690B10020FEF726FA24
:10745000204604B070BD1446802004F0F9FFB4FB50
:10746000F0F200FB12440CB90123E2E70023E0E74D
:1074700002498020FFF7C0FF0446E6E7CC970200F0
:1074800008B1402202600148704700BFC888002050
:1074900030B583B00D4601A8FFF7F2FF0446019B0B
:1074A000012B11D90023238001232370094B1B7862
:1074B00013F0020F01D00323237002222146681C1F
:1074C000FFF7ACFF03B030BD034940F29520FEF753
:1074D00011FAE7E7B8880020109702002DE9F0477D
:1074E00082B00F460B79022B15D0032B00F08D8054
:1074F000012B04D00624204602B0BDE8F087B1F885
:1075000007300BB90024F6E712224A49781CFFF72E
:1075100085FF0446EFE7B1F807300BB90024EAE72E
:10752000092B28BF09239A46FFF74CF804464FF071
:1075300000094FF009081DE03F4940F2C720FEF75F
:10754000D9F91BE03C494FF43270FEF7D3F919E04A
:10755000013563685E680123002221466846B04712
:107560000028F5D1A844237A99445FFA89F964B1D7
:1075700023681C687CB16368002BDDD063685B689E
:10758000002BDFD000250095E3E72C4940F2432093
:10759000FEF7B0F9ECE76846FFF772FF0446009B80
:1075A000534526D352462649204610F01FFB84F847
:1075B0000490A4F80280FEF7E9FF18B1E37943F0E4
:1075C0002003E371FEF7FEFF1E4B18605C60C3F8FA
:1075D00008A0B7F80720DA600020FEF74FF91A4933
:1075E0008020FFF70FF9044648B10020FEF756F956
:1075F00081E7114940F2DD20FEF77CF9D2E713491B
:107600008020FFF7F9FE0446EFE7B1F807300BB929
:10761000002470E7B1F80510F87800F0E3FA0146AD
:1076200028B10278781CFFF7F9FE044663E70624C8
:1076300061E700BFB8970200109702007896020039
:1076400098970200A0880020D4970200CC970200EF
:1076500010B582B00C4601A8FFF712FF0146094B96
:107660001B78052B09D0042B0AD1002303700122BB
:10767000A018FFF7D3FE02B010BD01230370F6E798
:107680000620F8E79C88002038B50C46054688B1EE
:10769000B4B1637813F0600F57D1DB0916D1A3782A
:1076A000013B082B2ED8DFE803F03D2D2F2D282D90
:1076B0002D2D4B00284940F25E30FEF71BF9E7E71D
:1076C000254940F25F30FEF715F9E2E7A378062B73
:1076D00009D0082B0CD00BB1062014E02146284617
:1076E000FFF7D6FE0FE021462846FFF7F7FE0AE037
:1076F00021462846FFF7ACFF05E0174940F28230EB
:10770000FEF7F8F8062038BDB4F80330012BF9D1A4
:10771000FEF73CFFD8B1114A137843F0020313700F
:107720000020F0E7B4F80330012BEBD1FEF72EFF79
:1077300078B10A4A137823F0020313700020E2E7BD
:1077400021462846FFF78EFDDDE70620DBE70F2008
:10775000D9E70F20D7E700BF10970200B8880020B4
:10776000537813F0600F42D1F0B583B006460D4652
:107770001446214A1278DB0905D1A3780B2B2AD0B5
:10778000062003B0F0BDA3781BB10A2B10D0062051
:10779000F7E7052A01D00820F3E701A8FFF770FEFC
:1077A0000146002303800222601CFFF737FEE8E752
:1077B000052A01D00820E4E701A8FFF761FE07468B
:1077C00029463046FFF7BAF8387001223946A0182A
:1077D000FFF724FED5E7052A0BD1B4F80330FF2BC1
