:1000000000000420750300005D0300005F03000092
:1000100061030000630300006503000000000000AE
:100020000000000000000000000000006703000066
:1000300069030000000000006B0300006D03000076
:100040006F0300006F03000011190000AD190000DC
:100050006F0300006F030000651700006F030000CE
:100060006F0300006F0300006F0300006F030000C8
:100070006F0300006F0300006F0300006F030000B8
:100080006F030000690F00006F0300006F030000A2
:100090006F0300006F0300006F0300006F03000098
:1000A0006F0300006F0300006F0300006F03000088
:1000B0006F0300006F03000000000000000000005C
:1000C0006F0300006F0300006F0300006F03000068
:1000D0006F0300006F0300006F0300006F03000058
:1000E0006F0300006F0300006F03000000000000BA
:1000F000000000006F030000000000006F0300001C
:1001000000000000000000000000000000000000EF
:1001100000000000000000000000000000000000DF
:1001200000000000000000000000000000000000CF
:1001300000000000000000000000000000000000BF
:1001400000000000000000000000000000000000AF
:10015000000000000000000000000000000000009F
:10016000000000000000000000000000000000008F
:10017000000000000000000000000000000000007F
:10018000000000000000000000000000000000006F
:10019000000000000000000000000000000000005F
:1001A000000000000000000000000000000000004F
:1001B000000000000000000000000000000000003F
:1001C000000000000000000000000000000000002F
:1001D000000000000000000000000000000000001F
:1001E000000000000000000000000000000000000F
:1001F00000000000000000000000000000000000FF
:10020000354936480A1A02D0072291438D463449AF
:1002100034480A1A06D00722914381F30988022242
:1002200082F3148830483149314A00F044F83148AB
:100230003149324A00F03FF831483249324A00F041
:100240003AF832483249334A00F035F832483349F7
:10025000334A00F030F833483349344A00F02BF881
:1002600033483449344A00F026F8344834490022EF
:1002700000F02CF833483449002200F027F83348C6
:100280003349091A082902DB002202604160314A21
:1002900090471F481F49884205D00268043003B4C4
:1002A000904703BCF7E700208646EC46002000217B
:1002B000294A9047FEE7884207D0521A05D00378B2
:1002C00001300B700131013AF9D17047884202D0F8
:1002D00002700130FAE770470000042000E00320BC
:1002E0000000042000000420EC2F0000000000208B
:1002F0003C000020D0030000D0030000322B00009F
:10030000EC2F00000000002000000020A02B0000C7
:10031000A02B0000A02B0000A02B0000A02B0000B1
:10032000A02B0000A02B0000A02B0000EC2F000051
:10033000283000003C0000203C0000203C00002051
:100340004107002044070020440700204407002004
:10035000442700209D030000B1260000FEE7FEE7D1
:10036000FEE7FEE7FEE7FEE7FEE7FEE7FEE7FEE765
:1003700000F002B8FFF7FCBF0F484FF007018843B9
:1003800085460E4880470E48016841F470010160BF
:10039000BFF34F8FBFF36F8FFFF732BF09480A4992
:1003A0000A4A884207D0521A05D0037801300B70F0
:1003B0000131013AF9D1704700000420A92700005B
:1003C00088ED00E0A02B00000000002000000020CD
:1003D000F0B595B01C46164608460D4601F0A1F84A
:1003E0001A9B0D93CDE9086400242346082205A931
:1003F00028460A948DF82C400C9401F0AFF8079B26
:100400000293069B03939DF814308DF8114003F07E
:100410000302012A1DD1BDF81440059EC3F3C20397
:10042000C4F383148DF81030A20008230EA92846C7
:1004300001F094F8C6F3952608AB0093224602AB70
:100440000EA9304600F01AFC284601F06EF815B0EF
:10045000F0BD022AF8D1BDF81640C3F3C203A409C7
:100460008DF810300827082C264628BF08263B4662
:1004700032460EA9284601F071F8A41B08AB02AA67
:1004800031460EA8374400F05DFC002CEBD1DBE7D1
:10049000014B01221A7070477D0000207047000058
:1004A00070B50E4D06460FCD88B06C460FC495E86A
:1004B0000F00002E84E80F004FF00603084A094899
:1004C000009308BF0022694601F0E0F808B100F08F
:1004D000F0FC054B1E7008B070BD00BFA02B0000E3
:1004E00091040000000000203C00002007B5044BF0
:1004F0000093044A4023FFF76BFF03B05DF804FB51
:10050000090500003D00002038B50D4B0D4D0020C1
:1005100018700D4804782D5DD2B21C4665B10430C8
:1005200002F050F808B100F0C4FC084B1A7812B180
:100530002378002BFBD038BD0C3001F0F7FDF1E73C
:100540007D0000204C060020000000203C00002020
:1005500008B50848084A0378D35C3BB1043001F081
:10056000C9FF0020BDE80840FFF79ABF0C3001F03A
:1005700087FDF6E7000000204C0600200120FFF771
:100580008FBF000008B5FFF7F9FF0421034800F012
:10059000E3FA034B01225A7108BD00BF7C2B000017
:1005A00014000020037813F0040216D003F00303B4
:1005B000012B03D0022B09D0012070470A68008864
:1005C0000232C0F3831002440A60F5E70B684288E8
:1005D000023303EB92130B60EEE710467047000006
:1005E0002DE9F04F044685B0851C00200F4690464B
:1005F00000F0B6FC454806683E60D0E9013213447D
:1006000001339B1B824600F21C4600F5836900F211
:100610001447AB421AD30022B8F1000F6FD0052364
:1006200063F3070264F38912DAF80010DAF808308D
:100630000B4003330D444AF823200020CAF8005031
:1006400000F090FC012005B0BDE8F08F012130469C
:1006500000F0B4FC484600F0C7FC384600F0C4FC8B
:10066000DAF80400DAF808B0009000EA0B00033072
:100670000AEB80006946FFF795FF009B50BB0BEA31
:1006800003020AEB820203F1020CD26801920133E9
:1006900003EA0B0B0AEB8B0B02F00302012ACDF8E5
:1006A00000C0DBF80C1022D0022A16D08346384650
:1006B00000F09DFC10B1009BCAF80430594630464A
:1006C00000F07CFCDAE901231344DAF8002001335E
:1006D0009B1A9EE70BEA0300C9E7BDF806309B09A9
:1006E00003334FEA114B0CEB93030093DFE7BDF8A4
:1006F0000430C3F383134FEA114B6344F5E7062339
:1007000063F3070264F39F528EE700BF500100209D
:100710000B4B0C48FF2210B59A600022C3F8182436
:10072000C3E90022C3F8142483F8202400F0B2FEA9
:10073000044610B9044800F01BFF204610BD00BF5E
:10074000500100208C2B0000E02B000030B50A4C3B
:1007500071B10A4A0A49121BD20800239A4201D1F8
:10076000002030BD31F82350854202D00133F5E737
:10077000034654F83300F4E7342B00007C2B0000D0
:1007800000000020094B013903EBC000032909D800
:10079000DFE801F00A020406042070470079704780
:1007A000407970470020704702207047342B0000CA
:1007B000034BD3E90030C31A58425841704700BF79
:1007C000500100202DE9F04385B0FFF7F1FF064608
:1007D000002840F0F7807C4DC5F81804BFF34F8F18
:1007E0006868AC6800902040033005EB80006946E3
:1007F000FFF7D8FE009B18B1D5F81824002A5FD067
:1008000004EA0302991C013305EB8202234005EB45
:100810008303D268DB68029302F00303022B019288
:10082000009162D1BDF8063068484FEA9318B8F1DC
:10083000500FC14628BF4FF0500969F38F1309F1DB
:100840000801ADF8063000F03DFE0746002800F034
:10085000A48000F066FE01A900230822384600F0BB
:1008600073FE009924EA01060136B600B14535D978
:100870005FFA89F97EB3F6B2A9EB0609214003318C
:100880005FFA89F4B146524E05EB810108234A46CE
:10089000384600F059FE36B109F1080322463146C8
:1008A000384600F051FE009B08F1030803EB980363
:1008B0000093D5F81834002B4BD1D5F810445BE0E9
:1008C0002A689A4204D86A60304605B0BDE8F083D1
:1008D00004EA030088E73E493446D7E72140033164
:1008E00008234A4605EB8101DAE7012B55D1BDF813
:1008F00004303648C3F38311062928BF062161F36B
:10090000891302318900ADF8043000F0DBFD0746A1
:10091000002842D000F005FE0023082201A9384635
:1009200000F012FE0026BDF80420C2F38312B300CB
:10093000964203F10803BCD200994A1C21400331BE
:10094000009205EB81010422384600F0FDFD0136DE
:10095000E9E7384600F0E9FDFFF72AFF80F00100E3
:10096000C6B2B1E7E3685B7923B1236839461B68F7
:1009700020469847E3681C68002CF3D1384600F005
:10098000D4FD204600F0ECFAD5F818340BB9009BE2
:100990006B60002000F0E6FADEE7D5F8104454B9A9
:1009A0000C4B0D480D49C01AC008000440F002006D
:1009B00000F06EF8D0E7236820469B689847E3680C
:1009C0001C68ECE700267FE7500100208C2B00001C
:1009D0005C010020342B00005C2B0000EC2B00009D
:1009E0002DE9F74F284C80460F46924601A9012277
:1009F00018469B46D4F80890FFF7F2FD80B3019D9E
:100A00000026A91C5E4506EB010233D100211F48D8
:100A100000F0B4FA80F310006A1C02EA090204EB49
:100A20008202000405EA0903033340EA1840D0605B
:100A300014F8232068F3C50204F8232034F8232097
:100A400066F3891224F8232054F8232067F39F22A9
:100A500044F8232002F0F80242F0010204F82320B7
:100A600094F820341BB1FFF7ADFE0028FBD103B092
:100A7000BDE8F08F09EA020204EB82025AF8263040
:100A8000D3600136BEE700BF500100206C05002096
:100A900000231A46FFF7A4BF2DE9F34780462C4CEC
:100AA000D01C8A46174601A900228008A568FFF7D6
:100AB00097FDC8B3DDF80490A66809F10200019023
:100AC00001362840361AB6000330B74204EB8000E6
:100AD00034D83A46514601F0A0FF00211D4800F0ED
:100AE0004DFA80F3100009F101032B4004EB83035E
:100AF0004FEA184242EA0042DA6005EA090303338A
:100B000004EB830214F8231068F3C50104F82310E2
:100B1000518867F38F11518034F8232002F0380296
:100B200042F0020224F8232094F820341BB1FFF78E
:100B300049FE0028FBD102B0BDE8F087324651469D
:100B400001F06BFFBA1B0AEB060104F10C00C2E7CF
:100B5000500100206C05002030B50F49D1F8102459
:100B6000002314463CB9C468237152B9C1F810047B
:100B70002260184630BDE46825799D4206D024687D
:100B8000F0E7D268116821601060F2E701330A2BA8
:100B9000E7D14FF0FF33ECE750010020094A38B5A8
:100BA0000123D2F8104482F820341D4604B938BD20
:100BB000E3685D71236820465B689847E3681C68BA
:100BC000F4E700BF50010020037A052B10B50C4656
:100BD0000FD0437A23B1084A0849204600F061FA51
:100BE0000749204600F05DFA2046BDE8104000F0BD
:100BF0004DBA002AF8D0F3E7372C00003C2C000057
:100C00005C2C0000C38873B504460D4633B1144A0A
:100C100000921449144A284600F043FA217A052923
:100C20001CD0637A4BB1A088FFF7ACFD0F4B104985
:100C300053F82020284600F034FA227A0D4BA08881
:100C400053F822600021FFF781FD0B49034632462D
:100C5000284602B0BDE8704000F023BA02B070BD73
:100C6000372C0000472C00003F2C0000042C000013
:100C70003C2C00006C2C00005F2C00002DE9F043A0
:100C800085B01F460C9D002306460C46904695F8FD
:100C90000C902B7329463846FFF7B4FFB8F1060FC6
:100CA00009D8DFE808F00412181F28334000314645
:100CB000284600F0F6F9002229463846FFF784FF5F
:100CC00085F80C9005B0BDE8F083226831462846CF
:100CD00000F0E7F9EFE7D4E900233146284600F0B9
:100CE000E0F9E8E7A36800933146D4E900232846F9
:100CF00000F0D7F9DFE7E3680193A368009331467A
:100D0000D4E90023284600F0CCF9D4E72369029304
:100D1000E3680193A36800933146D4E90023284691
:100D200000F0BFF9C7E76369039323690293E3689F
:100D30000193A36800933146D4E90023284600F0CC
:100D4000B0F9B8E708292DE9F84F80460E46174656
:100D50001C463AD8002593F80C901D73194610468E
:100D6000FFF750FFDFF884A0DFF884B0AE422ED941
:100D700018F805205946204600F093F90135082D52
:100D8000F4D11849DFF86CB0204600F08AF94FF032
:100D9000000A564520D918F80A507E2D03D8284657
:100DA00001F036FE00B92E252A465946204600F0AD
:100DB00078F90AF1010ABAF1080FEAD101222146B5
:100DC0003846FFF701FF84F80C90BDE8F88F5146D4
:100DD000204600F066F9D1E70349204600F061F9AA
:100DE000E7E700BF322C0000302C00002E2C000062
:100DF000282C0000342C0000074B1B5C1F2B86BFE7
:100E000003F01F0305494FF0A041012202FA03F34A
:100E1000C1F80835704700BFCB2C0000000300501C
:100E200008B50020FFF7E8FF0120FFF7E5FF0220EB
:100E3000FFF7E2FF0320BDE80840FFF7DDBF000039
:100E40000A4B185C1F288ABF094B4FF0A04300F0E3
:100E50001F00D3F804250121814021EA02000A4045
:100E6000C3F80805C3F80C25704700BFCB2C000061
:100E700000030050C20710B504460CD54FF0A04344
:100E80000322C3F83427C3F83827C3F83C27C3F834
:100E90004027FFF7C5FFA3070AD54FF0A0430C2258
:100EA000C3F82C27C3F83027C3F86027C3F864279A
:100EB00010BD1FB50021039001AA44F20100CDE945
:100EC000011100F003F805B05DF804FB10B572B62F
:100ED000FFF764FEFFF776FC0028FBD1104B114CA6
:100EE0001149E41AE408240444F00100FFF7D0FD9E
:100EF0000E4B1B68DB0700D500BE0D4944F0020015
:100F0000FFF7C6FDBFF34F8F0A490B4BCA6802F4C7
:100F1000E0621343CB60BFF34F8F00BFFDE700BF1C
:100F2000342B00005C2B0000DA2C0000F0ED00E018
:100F3000E62C000000ED00E00400FA0572B6024A5B
:100F400013680133136070470C060020034A1368CE
:100F5000013B136003B962B6704700BF0C06002066
:100F6000FFF7ECBFFFF7F2BF024B034A1B681068A4
:100F7000184700BF180600201006002050E8002F78
:100F80000B4640E8003C9CF0000FF7D1104670473C
:100F900050E8003F43EA010240E8002C9CF0000FBB
:100FA000F6D11046704750E8002F02EA010340E8EE
:100FB000003C9CF0000FF6D11046704750E8003F0F
:100FC00003EB010240E8002C9CF0000FF6D1104624
:100FD000704750E8003FA3EB010240E8002C9CF072
:100FE000000FF6D1104670470121FFF7D1BF002155
:100FF000FFF7D9BF10B590B1D0E9012301689B1A62
:10100000DBB20A60013BDBB2FF2B026802D1002099
:10101000107110BD11684C1C14600B70F2E70E20AB
:10102000F7E738B504460020FFF79AFF22686368A7
:101030001168994213D9481E106011F8015CE368E9
:10104000218A01FB0535A36811791B1ADBB299428D
:1010500000D213710020FFF785FF284638BD002518
:10106000F8E738B5054600200C46FFF779FF2A68F7
:101070001368591C1160E968641A298AB4FBF1F4F9
:101080001C700020BDE83840FFF76CBF826810B5C7
:1010900004462AB143690168006998470023A360A8
:1010A00010BD0EB403B5039921B104AB01AA01939D
:1010B00000F074F802B05DF804EB03B070470A2941
:1010C00038B504460D4602D10D21FFF7F8FFA3689D
:1010D0002268591CA160D554D4E901329A4204D344
:1010E0002046BDE83840FFF7D1BF38BD2DE9F84FA5
:1010F0009946DDE90A431746824688460A46012694
:10110000BA420FD24E4538BF4E4613F0010B01D103
:1011100064B900240125B9F1010F1AD909F1FF3989
:101120007D43F8E7B2FBF7F20136E9E79B070ED5FE
:10113000B9F1000F0CBF30252025A642EAD2013CB0
:1011400029465046FFF7BBFF002CF6D1E1E72025EA
:10115000F3E7B8FBF5F39F42E2D9DFF83C90B8FB28
:10116000F5F3504619F8031005FB1388FFF7A7FFA6
:10117000B5FBF7F3BD4207D2BBF1000F02D00CB1B3
:10118000A64203D3BDE8F88F1D46E8E7202150466C
:10119000013CFFF794FFF2E7FD2C00002DE9F74F2B
:1011A000054617468846002900F0308118F8011BD3
:1011B00049B92B7B002B00F02981284603B0BDE8FC
:1011C000F04FFFF763BF252940F0C080002698F854
:1011D00000302D2B424608F1010823D0302B24D0BB
:1011E0002B2B25D000242A2B02F1010123D13B68AF
:1011F0001A1D1B683A601C440A4613782E2B26D110
:1012000001324FF00009104610F8011BA1F1300C1B
:10121000BCF1090F1DD80A2303FB0913A3F1300900
:101220000246F0E746F00106D1E746F00206CEE7B7
:1012300046F00406CBE711F8013CA3F13000092881
:10124000DBD80A2202FB0434303C0A46CBE74FF0DD
:10125000000912F8011B01F0FB0068289046F8D045
:1012600069290ED04AD8582964D006D825296DD0CE
:1012700098F80030002B99D19BE7632962D064294C
:10128000F6D13A68D2F800A0111D8AEAEA723960F4
:10129000A2EBEA724FF0010B092A5BDCCB4538BFA9
:1012A000CB462CB1BAF1000F01DB720700D5013C2F
:1012B000B30702D5B9F1000F04D0F00702D4002C17
:1012C0004ED10024BAF1000F52DACAF1000A2D21E2
:1012D0002846FFF7F4FE06F00302022A05D1B9F111
:1012E000000F02D1002C47D10024CDE900464B4627
:1012F0000A2251462846FFF7F9FEB9E773294CD078
:1013000014D87029B4D13B681A1D3A6030212846A0
:101310001C68FFF7D4FE78212846FFF7D0FE002294
:101320000823CDE9003221461022E3E775292BD0AE
:1013300078299DD139680A1D3A60CDE900464B46AF
:10134000102228E03B681A1D19783A602846FFF7FA
:10135000B6FE8DE70A230BF1010BB2FBF3F29BE71C
:10136000A345AFD220212846013CFFF7A8FEA6E7FF
:101370007107B0D52B21ABE7A345B6D23021284663
:10138000013CFFF79CFEADE73968CDE900460A1D38
:101390003A604B460A220968ACE73B681A1D3A607E
:1013A00016F00106D3F800A020D1BAF1000F03D047
:1013B000504601F08EFB0646B44200D9C4B90AF18A
:1013C000FF3A1EE028460136FFF779FE1AF80610AC
:1013D0000029F7D1A642BFF44BAF002C3FF448AF31
:1013E00020212846013CFFF76AFEF3E70026EDE7DF
:1013F00020212846013CFFF762FEDDE72846FFF783
:101400005EFE1AF8011F0029F8D131E703B0BDE8EC
:10141000F08F2DE9F047B0F806904479D2F800A09B
:101420009DF8208009FB04F4043C06460AEB030007
:10143000A0420F4688BFA4EB030A191DC2F800A002
:10144000B1FBF9F509FB15114DB9A9EB01045445A0
:1014500028BF5446BAF1000F04D1BDE8F0873668C2
:10146000013DF1E704317B1970182246B8F1000FF5
:101470000ED001461846AAEB040A01F0CEFAD14577
:10148000254436684C464FF0000128BF5446E1E73A
:101490001946F0E7FFF7AEBDF8B546790146721E72
:1014A0000546002393422D6803D30024A64202D8A8
:1014B000F8BD0133F6E70F682846FFF7D2FD013487
:1014C0003946F3E72DE9F843068ACD1C0746FFF7B6
:1014D000A8FD043E35440446B5FBF6F5F0B14FF4E3
:1014E0008073EDB28380C680013D076081464FF076
:1014F0000008A84512D23846FFF793FD064648B1CA
:1015000063790133637108F10108C9F800000760CD
:101510008146EEE72046FFF7BFFF34462046BDE890
:10152000F88301210430FFF749BD10B501210446BD
:101530000430FFF74EFD10F0FF0F04D12046BDE848
:101540001040FFF7A9BF10BD1FB503920022009203
:1015500003AAFFF75EFF05B05DF804FB1FB5039219
:101560000122009203AAFFF754FF05B05DF804FBC7
:10157000836800225A609A60C3E90422DA601A6024
:10158000704700007FB503788DF8043043680293FC
:1015900083688DF80C30C368049303698DF81430A8
:1015A000054A064B01A853F8213052F821109847FC
:1015B00007B05DF804FB00BF1C0600202C060020CD
:1015C000F0B50646174616F804CB124A42F82C70BE
:1015D000114A42F82C30114B0D460FCB85B06C46AA
:1015E00084E80F002B6800932B798DF805306B7918
:1015F0008DF80630AB680293002FAB89ADF80C3044
:10160000074A634608BF3A462146304600F0FAF9D9
:1016100005B0F0BD2C0600201C060020182D00008F
:10162000851500001FB503788DF8003043680193DD
:1016300083688DF80830C3680393054A054B6846F4
:1016400053F8213052F82110984705B05DF804FB9B
:101650003C060020440600201FB503788DF80030BA
:101660004368019383688DF80830C3680393054A83
:10167000054B684653F8213052F82110984705B0C1
:101680005DF804FB3C06002044060020F0B5184B32
:101690000778DFF86CE043F82720164B16460A69F6
:1016A00043F827204B7F0EF807300C4684460FCCBA
:1016B00089B06D460FC594E80F0085E80F001EF84D
:1016C0000730049753B1002E0B4A694608BF3246D3
:1016D0000CF1040000F02CFE09B0F0BD002E074A0A
:1016E000694608BF32460CF10C0000F0F5FBF3E749
:1016F000440600203C060020251600005916000074
:101700004C06002000F1804000F5C040002382B06C
:10171000036003680193019B02B0704703681F2BAD
:1017200083BF03F01F03036001484FF0A0407047E0
:101730000003005007B5019001A8FFF7EFFF019BE0
:1017400000EB8300D0F8002722F44032C0F80027D5
:10175000D0F8003743EA0143C0F8003703B05DF822
:1017600004FB00002DE9F04F002489B0CDE90244CC
:10177000624D4FF48072012102F1804303F5C043B2
:1017800090B21B68012B06D1D5F804330B4202D06E
:10179000FFF7B8FF0C430432B2F5907F4FEA4101E6
:1017A000EAD1574B1B68012B0ED14FF4BE70FFF7E7
:1017B000A9FF4FF0A04344F00044D3F81035029342
:1017C000504BD3F81035039314F0FF0F1AD04E4F3F
:1017D00000250126344210D0AB0003F1804303F50D
:1017E000C043D3F81005D3F8101557F8253023B1AE
:1017F000C1F30141C0F3052098470135082D4FEA98
:101800004606E7D1002C75DA0DF110080023049389
:10181000C8F804304FF0FF33CDE90633DFF8E8A015
:10182000DFF8E89000273D4619F9014B631C48D0CA
:10183000E4B2012324F0C00604F0070203FA02F226
:10184000F00808AB191811F8083C134239D00AEB1C
:101850000603A40993F930305AF823B0BBF1000F06
:1018600008D1032C2DD118F800C04CEA020C08F85E
:1018700000C001E0032CF6D001A80196FFF74EFF4F
:10188000019B11F8181C03F5E07C114250F82C0064
:10189000C0F3014005D0022813D1032C0BD12146FF
:1018A00004E003280DD1032C05D102213046FFF7B7
:1018B00041FF0135EDB2BBF1000F02D021463046A9
:1018C000D8470137042FAFD1A5B14FF0A0430299FB
:1018D000D3F8102503F540739142D3F8103502D1A7
:1018E0000399994206D002920393049A059B0692AB
:1018F000079395E709B0BDE8F08F00BF0060004096
:101900007C6100400003005050060020B00600201B
:10191000014B1B68184700BFBC06002038B50B4BB5
:1019200098420D4601D0002038BD0020FFF718FB7B
:10193000074B1C7914B901221D601A710020FFF7B2
:1019400011FB002CEFD01120EEE700BF002000407B
:10195000BC060020034B984201BF034B00221A60D3
:101960001A71704700200040BC0600201F2886BF67
:1019700000F01F00044A4FF0A042012303FA00F0D8
:10198000C2F80805704700BF000300501F2886BF3B
:1019900000F01F00044A4FF0A042012303FA00F0B8
:1019A000C2F80C05704700BF00030050114BD3F87C
:1019B000183107B5D3B1104B104900221A60C87F07
:1019C0001B680193FF28019B03D08B7F5BB1FFF75E
:1019D000DDFF00234B770B72D1E90031084803B0DB
:1019E0005DF804EB1847FFF7C1FFF2E703B05DF8BD
:1019F00004FB00BF0030004018310040C406002046
:101A0000CC0600202DE9F74F0679724F01934FF075
:101A1000240909FB06F907EB090A93469AF81C20EA
:101A200080460C46002A40F0D18005686A49284665
:101A3000FFF774FF0146002840F0CA80019BCAF8F6
:101A40000430237B47F809B0012B207800F2AC80EA
:101A5000FFF79CFF23781F2B86BF03F01F035F4A0D
:101A60004FF0A04203F5E073012042F8230094F800
:101A70000190B9F1FF0F00F09A804846FFF786FF0A
:101A8000B9F11F0F8BBF09F01F034B46534A4FF0AC
:101A9000A04203F5E073032042F82300A378FF2B54
:101AA00000F088801F2B8BBF03F01F021A464B48A3
:101AB0004FF0A04002F5E0724FF0040C40F822C055
:101AC0009A46242202FB067282F82030E078D07712
:101AD000FF2816D02379002B6FD0FFF757FFE3784C
:101AE0001F2B86BF03F01F033C4A4FF0A04203F5B3
:101AF000E073032042F82300242303FB06732279BA
:101B00009A772378C5F80835A368C5F80C95C5F809
:101B100010A5C5F82435637B227B003318BF012351
:101B2000022A4DD0032A4ED0012A01D143F00203EC
:101B3000C5F85435A379C5F8C03524237343FB5841
:101B400013B14022C5F804230722C5F8002503B3CA
:101B5000D8F8003062791B0B58B20028A8BF00F1FA
:101B60006044DBB2B8BF03F00F054FEA4212B4BFC6
:101B70001B4C04F56144D2B2B4BF625584F8002313
:101B800003F01F03012202FA03F34009154A42F849
:101B90002030242303FB0676002373770123337759
:101BA000084603B0BDE8F08FFFF7E0FE52E74FF0C4
:101BB000FF3973E74FF0FF3A83E7FFF7D7FE8EE771
:101BC00043F00403B4E743F00603B1E70821E7E775
:101BD0001121E5E7C4060020AD1900000003005004
:101BE00014ED00E000E100E02DE9F3410579424EFB
:101BF00024236B431446F2180F46517F8046002978
:101C000078D1F35823B114F0140F04BF0123537794
:101C100097E80F004FF0240C0CFB056C0CF10C0E38
:101C20008EE80F009CF81F00FF2804D09CF81E309F
:101C3000C3B1FFF79BFE396821B101F06043B3F1F6
:101C4000005F06D1BA6882B102F06043B3F1005F71
:101C50000BD0242303FB056500236B77102002B013
:101C6000BDE8F081FFF792FEE5E7D8F8003078682C
:101C7000C3F84415C3F84805F968C3F834250022B1
:101C8000C3F83815C3F81821D3F818210192019A26
:101C900014F0010218BF0122C3F8502514F002020B
:101CA00018BF0122C3F8402522075CBF01221A6138
:101CB00024226A43B25892B9D3F81821002AFBD0E3
:101CC000242303FB0565E87FFF2803D0AC7F1CB10C
:101CD000FFF75CFE0020C2E7FFF748FEFAE714F0CA
:101CE00004004FF0400202D0C3F80823F2E7C3F823
:101CF0000423B4E71120B2E7C406002000234350B8
:101D000082B043580193019B02B070470A4610B558
:101D10004FF48E71FFF7F2FF136A9168C95C136A82
:101D200001331362C0F81C1510BD8B690A4610B54B
:101D30004FF4847123B9FFF7E1FFD0F8183510BDD7
:101D4000FFF7DCFF536AD168D0F81805C854536A0E
:101D500001335362F3E700001FB501238DF8003013
:101D6000044BCDE90110D3E900126846904705B055
:101D70005DF804FBE806002030B54D4AD2F8043384
:101D800013F4007F85B015464FD0D2F82431002BD4
:101D90004BD04FF492711046FFF7B0FF4FF4017330
:101DA000C2F80833434B93F8291009B90121516057
:101DB0003F4902228DF80020D1F88024C1F8802408
:101DC00003929A690292DA6801920022C3E906221C
:101DD0006846D3E9001290473548D0F81C315BB112
:101DE00034494A690B6A9A420A464BD991F828301D
:101DF000002B47D1FFF78AFF2D4AD2F8443193B127
:101E00004FF4A2711046FFF779FF2A4B93F829107F
:101E100009B1012111609A692AB100229A61586AB8
:101E2000D968FFF799FF05B030BDD5F804335B07DB
:101E3000D2D5D5F80831002BCED01E4C1C482146F7
:101E4000FFF773FF636AA2699A422346C4D1E2692D
:101E5000E1684AB12369E3600023606AA261E3613B
:101E60006362FFF779FFB7E794F829200AB90122E6
:101E70006A600F4A4FF40170C2F8080300229A61A9
:101E8000586AEEE74FF48E710948FFF737FF536940
:101E9000002BB1D051690291002391688DF8003078
:101EA000019153616846D2E900139847A4E700BF47
:101EB00000200040E80600201F2886BF00F01F0019
:101EC000044B4FF0A04300F5E070022243F82020BD
:101ED000704700BF000300502DE9F843624F0479BA
:101EE00091462C2202FB0472064692F82A200D46E7
:101EF000002A40F0B3805D490068FFF70FFD80467F
:101F0000002840F0AE8029684A1C10D01F2987BFE6
:101F100001F01F03564A0B464FF0A04201209840A3
:101F200003F5E073C2F80805032042F8230068684F
:101F3000431C0DD01F288BBF00F01F0303464C4AE3
:101F40004FF0A04203F5E0734FF0000C42F823C0BD
:101F50003368AA6995F814C0C3F824256A7DBCF1DA
:101F6000010F4CEA0202C3F86C25C3F81405C3F84C
:101F70000C152BD1A968481C0DD01F298BBF01F06F
:101F80001F020A463A484FF0A04002F5E0724FF0B7
:101F9000000C40F822C0E868421C13D01F2887BFFD
:101FA00000F01F0C324A84464FF0A0424FF0010E61
:101FB0000EFA0CFE0CF5E07CC2F808E54FF0030EBB
:101FC00042F82CE0C3F80805C3F810152C2363432E
:101FD000FA18C2F804902A69FA50B9F1000F2AD011
:101FE0004FF48E7130682D7FFFF788FE30684FF414
:101FF000A271FFF783FE32681E4BC2F80433120B46
:1020000051B20029A8BF01F160404FEA4513BABFA1
:10201000194802F00F0500F56140DBB2B4BF43552B
:1020200080F8003302F01F02012303FA02F249098B
:10203000124B43F8212033680422C3F800252C23D7
:1020400003FB04730022C3E9062283F829205A61A6
:10205000012283F82A204046BDE8F8834FF00808A3
:10206000F9E74FF01108F6E7E8060020791D0000B7
:10207000000300508000020014ED00E000E100E0E9
:102080002DE9F04103680479254D0022C3F80025AD
:102090002C2202FB04520646526872B1214AC3F850
:1020A0000823190B4AB20120520901F01F0100FA5E
:1020B00001F120321C4840F82210D3F80C05D3F867
:1020C0001485D3F80815D3F810754FF0FF329042FD
:1020D000C3F81425C3F80C25C3F80825C3F8102548
:1020E00001D0FFF7E9FEB8F1FF3F02D04046FFF70D
:1020F000E3FE7A1C02D03846FFF7DEFE4B1C02D00E
:102100000846FFF7D9FE3068FFF724FC2C2303FBB9
:102110000454002384F82A306360BDE8F08100BFD6
:10212000E80600208402020000E100E02DE9F84FFB
:10213000224F06794FF02C0909FB06748046656929
:10214000002D38D16261A16025624FF48E71006864
:1021500084F82850FFF7D2FDD8F8000001238360EF
:102160002146FFF7D3FD6368A1469BB9D8F800A0CC
:10217000D4F814B0236A9B4512D8D8F80020D2F8BE
:102180001C31002BFBD00123D3602C2303FB0673EF
:1021900000225A612846BDE8F88F94F8283043B9E8
:1021A000DAF81C31002BF8D049465046FFF7AEFD57
:1021B000E0E70F25E9E71125ECE700BFE80600207E
:1021C0000023435082B043580193019B02B07047F3
:1021D0001FB501238DF80030044BCDE90110D3E980
:1021E00000126846904705B05DF804FB1407002014
:1021F0001F2886BF00F01F00044B4FF0A04300F5DE
:10220000E070022243F82020704700BF0003005016
:102210007FB5454AD2F82461002E63D010464FF4B2
:102220009271FFF7CDFF02238DF80030D2F8803491
:10223000C2F880340393D2F83C3502933B4BDA6802
:1022400001920022C3E906226846D3E900129047B2
:10225000354AD2F844317BB14FF4A2711046FFF7F2
:10226000AFFF324B996939B10021C3E90611D96832
:10227000D2F83C05FFF7ACFF2B4AD2F82031B3B1BE
:102280004FF490711046FFF79BFF0123D360274B5B
:10229000596961B1D2F84C150291002299688DF804
:1022A000002001915A616846D3E9001290471E4A06
:1022B000D2F85831A3B14FF4AC711046FFF780FF4C
:1022C0001A4B596961B1D2F84C15029100229968F4
:1022D0008DF8002001915A616846D3E900129047B9
:1022E00004B070BDD2F81031002BB1D04FF488711A
:1022F0001046FFF765FF0D4BD2F83C0599698842FF
:10230000A6D1DC69D96864B1D2F8005225F0200565
:10231000C2F800521A699C61DA60DE61FFF758FF6B
:1023200096E79C61FAE700BF0020004014070020F8
:102330002DE9F843694F06799146242202FB067283
:10234000044692F820200D46002A40F0C0806449DF
:102350000068FFF7E3FA8046002840F0BB80286859
:10236000421C10D01F2887BF00F01F035D4A0346A0
:102370004FF0A0420121994003F5E073C2F808151F
:10238000032142F8231069684B1C0DD01F298BBF15
:1023900001F01F030B46534A4FF0A04203F5E073D0
:1023A0004FF0000C42F823C02368AA6995F814C0C6
:1023B000C3F824256A7DBCF1010F4CEA0202C3F880
:1023C0006C25C3F80C05C3F814152BD1A968481C5B
:1023D0000DD01F298BBF01F01F020A4641484FF064
:1023E000A04002F5E0724FF0000C40F822C0E8680F
:1023F000421C13D01F2887BF00F01F0C394A8446A7
:102400004FF0A0424FF0010E0EFA0CFE0CF5E07CEE
:10241000C2F808E54FF0030E42F82CE0C3F80805B7
:10242000C3F8101524237343FA18C2F804902A69DC
:10243000FA50B9F1000F39D04FF4887120682D7F20
:10244000FFF7BEFE4FF490712068FFF7B9FE4FF41E
:1024500092712068FFF7B4FE4FF4A2712068FFF775
:10246000AFFE20684FF4AC71FFF7AAFE22681E4B46
:10247000C2F80433120B51B20029A8BF01F1604029
:102480004FEA4513BABF194802F00F0500F5614045
:10249000DBB2B4BF435580F8003302F01F020123C2
:1024A00003FA02F24909124B43F82120236808225B
:1024B000C3F80025242303FB06730022C3E9062288
:1024C0005A61012283F820204046BDE8F8834FF08E
:1024D0000808F9E74FF01108F6E700BF14070020DD
:1024E00011220000000300501003420014ED00E030
:1024F00000E100E02DE9F0412F4D0479242303FB96
:10250000045306465B68006873B12C4BC0F808336F
:10251000020B53B201215B0902F01F0201FA02F221
:102520002033274941F82320D0F80032012223F03C
:102530002003C0F800324FF4AC714260FFF740FE58
:102540003368DA60D3F85821002AFBD00022C3F8A0
:102550000025D3F80C05D3F81485D3F80815D3F863
:1025600010754FF0FF329042C3F80C25C3F81425C4
:10257000C3F80825C3F8102501D0FFF739FEB8F1DC
:10258000FF3F02D04046FFF733FE7A1C02D03846A8
:10259000FFF72EFE4B1C02D00846FFF729FE3068DD
:1025A000FFF7D8F9242303FB0454002384F82030D8
:1025B0006360BDE8F08100BF1407002010034200F3
:1025C00000E100E001F06043B3F1005F2DE9F0416C
:1025D000074638D11E4B0679242505FB063598465B
:1025E0006C69002C31D16A61A96000684FF4907168
:1025F000FFF7E6FD4FF4AC713868FFF7E1FD3B688B
:102600006A69A968C3F84415C3F8482501229A608D
:102610006A68AAB9D3F82021D3F858411AB9002C16
:10262000F8D00F2407E0002CFBD10122DA60D3F8A8
:102630005821002AFBD0242303FB06860023736164
:102640002046BDE8F0811024FAE71124F8E700BF26
:102650001407002038B5104B104C114D11490122C0
:102660001A70114BE41AE408240444F003042046D1
:10267000FEF70EFA2B786BB10C492046FEF708FAEC
:10268000284600F026FA294682B22046BDE83840A6
:10269000FEF702BA38BD00BF400700205C2B0000E7
:1026A000380700208C2D0000342B0000A02D0000E6
:1026B000F0B5012089B0FEF7DDFB4FF4804100202A
:1026C000FEF726F808B1FEF7F4FBFDF75BFF224B9F
:1026D0000FCB6C4684E80F00204B0093204A214822
:1026E00000232146FEF76CFF08B1FEF7E2FB1E4B0C
:1026F0001E481F491F4E204CC01AC008000440F05D
:102700000300FEF7C5F9374644F001041B4D0722CC
:102710000021284600F0AAF9194B04930022072350
:1027200004A918483270CDE905350793FFF75CFA24
:1027300008B1FEF7BEFB3B7863B1FEF743F8002813
:10274000FBD1FEF77DFBC8254FF47A40A047013D41
:10275000FAD1DBE720BFEEE7442D00001A1D1E1F53
:10276000552600007C2D0000342B00005C2B00005F
:10277000662D000040070020602D00003807002073
:102780001C000020802D0000054B1B68082B01BF9A
:10279000044B1868B0FA80F0400918BF0020704759
:1027A000300100103401001008B54FF080430022C2
:1027B000C3F80C21C3F81021C3F838254FF080521C
:1027C00003F54043D2F80414C3F82015D2F80814D6
:1027D000C3F82415D2F80C14C3F82815D2F8101435
:1027E000C3F82C15D2F81414C3F83015D2F8181405
:1027F000C3F83415D2F81C14C3F84015D2F82014CD
:10280000C3F84415D2F82414C3F84815D2F8281494
:10281000C3F84C15D2F82C14C3F85015D2F8301464
:10282000C3F85415D2F83414C3F86015D2F838142C
:10283000C3F86415D2F83C14C3F86815D2F84014F4
:10284000C3F86C15D2F84424C3F87025FFF79CFF39
:1028500010B1384B384A1A60FFF796FF18B1374B62
:10286000FB22C3F81825FFF78FFF48B13449354BD9
:102870000A681B6822F00F0203F00F0313430B607A
:10288000FFF782FF18B1304B4FF400721A604FF01F
:102890008043D3F80024D20744BF6FF00102C3F88D
:1028A00000242A4AD2F8883043F47003C2F88830F2
:1028B000BFF34F8FBFF36F8F4FF01023D3F8002279
:1028C000002A03DBD3F80432002B2FDA204B01223D
:1028D000C3F80425D3F80024002AFBD04FF01022BF
:1028E0001221C2F80012D3F80024002AFBD04FF0C6
:1028F00010231222C3F80422154B1A46D3F80014F1
:102900000029FBD00021C3F80415D2F80034002BB5
:10291000FBD0BFF34F8F0D490E4BCA6802F4E06243
:102920001343CB60BFF34F8F00BFFDE70A4B0B4A49
:102930001A6008BD8C5600404881030000F000403A
:10294000E40E0040580200104096024000ED00E006
:1029500000E001400400FA05240000200090D003AC
:102960007F2805D8034B185C034B5B5C184070470D
:1029700000207047AC2D00002C2E0000A0F1610358
:10298000192B98BF20387047A0F14103192B98BF2D
:10299000203070477F2805D8034B185C034B5B5CE5
:1029A0001840704700207047AC2D00002C2E00000E
:1029B000A0F16103192B98BF20387047A0F14103A3
:1029C000192B98BF203070477F299ABF01700120D2
:1029D0006FF02E0070475AB10A787F2A0AD800B1EA
:1029E0000260002119605960501A18BF0120704719
:1029F000002070476FF02E007047000008B5034BB1
:102A00005B689B681B68984708BD00BF28000020D2
:102A100008B50921FFF7F2FF08BD844640EA01032B
:102A200013F0030F18D18446202A0BD32DE9F007A9
:102A3000B1E8F807A0E8F807A2F12002202AF7D2AF
:102A4000BDE8F007042A07D351F8043B40F8043BE3
:102A5000A2F10402042AF7D2002A05D011F8013BA2
:102A600000F8013B013AF9D1604670478446002ADC
:102A70002DD010F0030F04D000F8011B013A26D02E
:102A8000F7E7C9B241EA012141EA0141202A12D304
:102A9000A2F120022DE9F0030B460C460D460E462E
:102AA0000F4688468946A0E8FA03203AFBD2BDE8E3
:102AB000F00320320BD0042A05D340F8041B043A5B
:102AC00005D0042AF9D200F8011B013AFBD1604677
:102AD000704700F1010110F0030F11D010F8012B25
:102AE000002A23D010F0030F0AD010F8012B002A7F
:102AF0001CD010F0030F03D010F8012B002A15D0C2
:102B00002DE970004FF001324FF0803350F8044B44
:102B1000A4EB020525EA04051D4000D1F6E7A0F16B
:102B2000040070BC10F8012B002AFBD1A0EB0100BF
:022B30007047EC
:102B3400282D0000000000002F2D000000000000E0
:102B4400332D000000000000382D000000000000BC
:102B54003D2D000000000000FD2B000000000303D9
:102B6400CF2C000000000000F32C00000000000047
:082B74000D2D0000000000001F
:102B7C00C02B000000000000CC2B00001400002033
:102B8C008000002048010020500100208800002017
:042B9C00180000001D
:102BA000FFFFFFFFFFFFFFFFFFFFFFFFFFFFFFFF35
:102BB00000000000000000000000D6010601000037
:102BC000ED040000510500009D0400007561727461
:102BD0005F6C6F675F6261636B656E64000000002D
:102BE000740500207F000000F40500204261636B43
:102BF000656E647320666C757368656400617070DF
:102C000000000000372C0000802C00003F2C00004A
:102C1000882C0000902C0000982C0000A02C0000B4
:102C2000A82C0000B02C0000202530327800202095
:102C300020007C002563001B5B306D002573001BAA
:102C40005B313B33316D0025734C6F6773206472C9
:102C50006F70706564202825642925730D0A003C77
:102C600025733E2025733A2000000000000000007C
:102C7000E02C0000B82C0000C02C0000C52C000087
:102C80001B5B313B33306D001B5B313B33326D00DE
:102C90001B5B313B33336D001B5B313B33346D00C9
:102CA0001B5B313B33356D001B5B313B33366D00B5
:102CB0001B5B313B33376D007761726E696E670065
:102CC000696E666F006465627567000D0E0F1061B6
:102CD00070705F627574746F6E00466174616C2011
:102CE0006572726F720053797374656D20726573CB
:102CF0006574006170705F74696D657200303132A7
:102D000033343536373839414243444546736F7260
:102D1000746C697374000000FFFFFFFF0006FF0082
:102D200000000040000000004750494F544500504B
:102D30005253005350494D00554152540055415291
:102D400054450000FFFFFFFF06FF000000000040A9
:102D50000000000000000000000000000000000073
:102D60000338FDD87047535049206578616D706C09
:102D70006520737461727465642E000000000000A9
:102D80000030004000000000010000005472616E3D
:102D90007366657220636F6D706C657465642E0078
:102DA0002052656365697665643A00002020202022
:102DB00020202020206828282828202020202020AB
:102DC000202020202020202020202020481010100B
:102DD0001010101010101010101010108484848423
:102DE00084848484848410101010101010818181D8
:102DF0008181810101010101010101010101010143
:102E000001010101010101101010101010828282D5
:102E10008282820202020202020202020202020212
:102E2000020202020202021010101020000703200A
:102E3000041702010857104080000000E02F000036
:102E4000A42E0000B82F000053756E004D6F6E0069
:102E500054756500576564005468750046726900D2
:102E600053617400000000004A616E004665620014
:102E70004D617200417072004D6179004A756E00BB
:102E80004A756C0041756700536570004F637400AC
:102E90004E6F76004465630000000000414D005015
:102EA0004D000000DC2F0000D82F0000D82F0000BC
:102EB000D82F0000D82F0000D82F0000D82F0000F6
:102EC000D82F0000D82F0000D82F0000FFFFFFFFF1
:102ED000FFFFFFFFFFFFFFFFFFFF0000182F0000B5
:102EE000482E0000542F0000682E00009C2E000089
:102EF000FC2E0000AC2F0000082F0000256D2F25B0
:102F0000642F2579000000002561202562202565B9
:102F1000202554202559000053756E646179004DB9
:102F20006F6E6461790054756573646179005765EB
:102F3000646E657364617900546875727364617955
:102F400000467269646179005361747572646179D5
:102F5000000000004A616E75617279004665627218
:102F600075617279004D6172636800417072696CBD
:102F7000004D6179004A756E65004A756C790041B3
:102F800075677573740053657074656D6265720062
:102F90004F63746F626572004E6F76656D62657225
:102FA00000446563656D62657200000025483A253E
:102FB0004D3A255300000000612900007D290000E2
:102FC0008929000095290000B1290000BD290000D1
:102FD000C9290000D7290000000000002E000000D1
:0C2FE00043000000504F5349580000000F
:102FEC000000000000200040000000000020004015
:102FFC000000000000000000FF0000004E6F726433
:10300C00696300000090D0033C2E00003C2E0000B1
:0C301C003C2E00003C2E00003C2E00006A
:040000030000037581
:00000001FF
